{
  "_format": "hh-sol-artifact-1",
  "contractName": "Layer2Staking",
  "sourceName": "contracts/staking.sol",
  "abi": [
    {
      "inputs": [],
      "stateMutability": "nonpayable",
      "type": "constructor"
    },
    {
      "inputs": [
        {
          "internalType": "address",
          "name": "target",
          "type": "address"
        }
      ],
      "name": "AddressEmptyCode",
      "type": "error"
    },
    {
      "inputs": [],
      "name": "AlreadyUnstaked",
      "type": "error"
    },
    {
      "inputs": [],
      "name": "Blacklisted",
      "type": "error"
    },
    {
      "inputs": [
        {
          "internalType": "address",
          "name": "implementation",
          "type": "address"
        }
      ],
      "name": "ERC1967InvalidImplementation",
      "type": "error"
    },
    {
      "inputs": [],
      "name": "ERC1967NonPayable",
      "type": "error"
    },
    {
      "inputs": [],
      "name": "EmergencyOnly",
      "type": "error"
    },
    {
      "inputs": [],
      "name": "EnforcedPause",
      "type": "error"
    },
    {
      "inputs": [],
      "name": "ExpectedPause",
      "type": "error"
    },
    {
      "inputs": [],
      "name": "FailedCall",
      "type": "error"
    },
    {
      "inputs": [],
      "name": "InsufficientReward",
      "type": "error"
    },
    {
      "inputs": [],
      "name": "InvalidAmount",
      "type": "error"
    },
    {
      "inputs": [],
      "name": "InvalidInitialization",
      "type": "error"
    },
    {
      "inputs": [],
      "name": "InvalidMaxStakeLimit",
      "type": "error"
    },
    {
      "inputs": [],
      "name": "InvalidPeriod",
      "type": "error"
    },
    {
      "inputs": [],
      "name": "MaxTotalStakeExceeded",
      "type": "error"
    },
    {
      "inputs": [],
      "name": "NoReward",
      "type": "error"
    },
    {
      "inputs": [],
      "name": "NotInitializing",
      "type": "error"
    },
    {
      "inputs": [],
      "name": "OnlyAdmin",
      "type": "error"
    },
    {
      "inputs": [
        {
          "internalType": "address",
          "name": "owner",
          "type": "address"
        }
      ],
      "name": "OwnableInvalidOwner",
      "type": "error"
    },
    {
      "inputs": [
        {
          "internalType": "address",
          "name": "account",
          "type": "address"
        }
      ],
      "name": "OwnableUnauthorizedAccount",
      "type": "error"
    },
    {
      "inputs": [],
      "name": "PositionNotFound",
      "type": "error"
    },
    {
      "inputs": [],
      "name": "ReentrancyGuardReentrantCall",
      "type": "error"
    },
    {
      "inputs": [],
      "name": "StillLocked",
      "type": "error"
    },
    {
      "inputs": [],
      "name": "UUPSUnauthorizedCallContext",
      "type": "error"
    },
    {
      "inputs": [
        {
          "internalType": "bytes32",
          "name": "slot",
          "type": "bytes32"
        }
      ],
      "name": "UUPSUnsupportedProxiableUUID",
      "type": "error"
    },
    {
      "anonymous": false,
      "inputs": [
        {
          "indexed": true,
          "internalType": "address",
          "name": "user",
          "type": "address"
        },
        {
          "indexed": true,
          "internalType": "uint256",
          "name": "positionId",
          "type": "uint256"
        },
        {
          "indexed": false,
          "internalType": "uint256",
          "name": "amount",
          "type": "uint256"
        },
        {
          "indexed": false,
          "internalType": "uint256",
          "name": "timestamp",
          "type": "uint256"
        }
      ],
      "name": "EmergencyWithdrawn",
      "type": "event"
    },
    {
      "anonymous": false,
      "inputs": [
        {
          "indexed": false,
          "internalType": "uint64",
          "name": "version",
          "type": "uint64"
        }
      ],
      "name": "Initialized",
      "type": "event"
    },
    {
      "anonymous": false,
      "inputs": [
        {
          "indexed": false,
          "internalType": "uint256",
          "name": "period",
          "type": "uint256"
        },
        {
          "indexed": false,
          "internalType": "uint256",
          "name": "rewardRate",
          "type": "uint256"
        },
        {
          "indexed": false,
          "internalType": "uint256",
          "name": "timestamp",
          "type": "uint256"
        }
      ],
      "name": "LockOptionAdded",
      "type": "event"
    },
    {
      "anonymous": false,
      "inputs": [
        {
          "indexed": false,
          "internalType": "uint256",
          "name": "oldLimit",
          "type": "uint256"
        },
        {
          "indexed": false,
          "internalType": "uint256",
          "name": "newLimit",
          "type": "uint256"
        }
      ],
      "name": "MaxTotalStakeUpdated",
      "type": "event"
    },
    {
      "anonymous": false,
      "inputs": [
        {
          "indexed": true,
          "internalType": "address",
          "name": "previousOwner",
          "type": "address"
        },
        {
          "indexed": true,
          "internalType": "address",
          "name": "newOwner",
          "type": "address"
        }
      ],
      "name": "OwnershipTransferred",
      "type": "event"
    },
    {
      "anonymous": false,
      "inputs": [
        {
          "indexed": false,
          "internalType": "address",
          "name": "account",
          "type": "address"
        }
      ],
      "name": "Paused",
      "type": "event"
    },
    {
      "anonymous": false,
      "inputs": [
        {
          "indexed": true,
          "internalType": "address",
          "name": "user",
          "type": "address"
        },
        {
          "indexed": true,
          "internalType": "uint256",
          "name": "positionId",
          "type": "uint256"
        },
        {
          "indexed": false,
          "internalType": "uint256",
          "name": "amount",
          "type": "uint256"
        },
        {
          "indexed": false,
          "internalType": "uint256",
          "name": "lockPeriod",
          "type": "uint256"
        },
        {
          "indexed": false,
          "internalType": "uint256",
          "name": "timestamp",
          "type": "uint256"
        }
      ],
      "name": "PositionCreated",
      "type": "event"
    },
    {
      "anonymous": false,
      "inputs": [
        {
          "indexed": true,
          "internalType": "address",
          "name": "user",
          "type": "address"
        },
        {
          "indexed": true,
          "internalType": "uint256",
          "name": "positionId",
          "type": "uint256"
        },
        {
          "indexed": false,
          "internalType": "uint256",
          "name": "amount",
          "type": "uint256"
        },
        {
          "indexed": false,
          "internalType": "uint256",
          "name": "timestamp",
          "type": "uint256"
        }
      ],
      "name": "PositionUnstaked",
      "type": "event"
    },
    {
      "anonymous": false,
      "inputs": [
        {
          "indexed": true,
          "internalType": "address",
          "name": "sender",
          "type": "address"
        },
        {
          "indexed": false,
          "internalType": "uint256",
          "name": "amount",
          "type": "uint256"
        }
      ],
      "name": "Received",
      "type": "event"
    },
    {
      "anonymous": false,
      "inputs": [
        {
          "indexed": true,
          "internalType": "address",
          "name": "user",
          "type": "address"
        },
        {
          "indexed": true,
          "internalType": "uint256",
          "name": "positionId",
          "type": "uint256"
        },
        {
          "indexed": false,
          "internalType": "uint256",
          "name": "amount",
          "type": "uint256"
        },
        {
          "indexed": false,
          "internalType": "uint256",
          "name": "timestamp",
          "type": "uint256"
        }
      ],
      "name": "RewardClaimed",
      "type": "event"
    },
    {
      "anonymous": false,
      "inputs": [
        {
          "indexed": false,
          "internalType": "uint256",
          "name": "oldEndTime",
          "type": "uint256"
        },
        {
          "indexed": false,
          "internalType": "uint256",
          "name": "newEndTime",
          "type": "uint256"
        }
      ],
      "name": "StakeEndTimeUpdated",
      "type": "event"
    },
    {
      "anonymous": false,
      "inputs": [
        {
          "indexed": true,
          "internalType": "address",
          "name": "operator",
          "type": "address"
        },
        {
          "indexed": false,
          "internalType": "uint256",
          "name": "timestamp",
          "type": "uint256"
        }
      ],
      "name": "StakingPaused",
      "type": "event"
    },
    {
      "anonymous": false,
      "inputs": [
        {
          "indexed": true,
          "internalType": "address",
          "name": "operator",
          "type": "address"
        },
        {
          "indexed": false,
          "internalType": "uint256",
          "name": "timestamp",
          "type": "uint256"
        }
      ],
      "name": "StakingUnpaused",
      "type": "event"
    },
    {
      "anonymous": false,
      "inputs": [
        {
          "indexed": false,
          "internalType": "address",
          "name": "account",
          "type": "address"
        }
      ],
      "name": "Unpaused",
      "type": "event"
    },
    {
      "anonymous": false,
      "inputs": [
        {
          "indexed": true,
          "internalType": "address",
          "name": "implementation",
          "type": "address"
        }
      ],
      "name": "Upgraded",
      "type": "event"
    },
    {
      "anonymous": false,
      "inputs": [
        {
          "indexed": false,
          "internalType": "uint256",
          "name": "oldRate",
          "type": "uint256"
        },
        {
          "indexed": false,
          "internalType": "uint256",
          "name": "newRate",
          "type": "uint256"
        }
      ],
      "name": "WhitelistBonusRateUpdated",
      "type": "event"
    },
    {
      "anonymous": false,
      "inputs": [
        {
          "indexed": true,
          "internalType": "address",
          "name": "user",
          "type": "address"
        },
        {
          "indexed": false,
          "internalType": "bool",
          "name": "status",
          "type": "bool"
        }
      ],
      "name": "WhitelistStatusChanged",
      "type": "event"
    },
    {
      "inputs": [],
      "name": "UPGRADE_INTERFACE_VERSION",
      "outputs": [
        {
          "internalType": "string",
          "name": "",
          "type": "string"
        }
      ],
      "stateMutability": "view",
      "type": "function"
    },
    {
      "inputs": [
        {
          "internalType": "uint256",
          "name": "period",
          "type": "uint256"
        },
        {
          "internalType": "uint256",
          "name": "rewardRate",
          "type": "uint256"
        }
      ],
      "name": "addLockOption",
      "outputs": [],
      "stateMutability": "nonpayable",
      "type": "function"
    },
    {
      "inputs": [
        {
          "internalType": "address",
          "name": "user",
          "type": "address"
        }
      ],
      "name": "addToBlacklist",
      "outputs": [],
      "stateMutability": "nonpayable",
      "type": "function"
    },
    {
      "inputs": [
        {
          "internalType": "address",
          "name": "user",
          "type": "address"
        }
      ],
      "name": "addToWhitelist",
      "outputs": [],
      "stateMutability": "nonpayable",
      "type": "function"
    },
    {
      "inputs": [],
      "name": "admin",
      "outputs": [
        {
          "internalType": "address",
          "name": "",
          "type": "address"
        }
      ],
      "stateMutability": "view",
      "type": "function"
    },
    {
      "inputs": [
        {
          "internalType": "address",
          "name": "",
          "type": "address"
        }
      ],
      "name": "blacklisted",
      "outputs": [
        {
          "internalType": "bool",
          "name": "",
          "type": "bool"
        }
      ],
      "stateMutability": "view",
      "type": "function"
    },
    {
      "inputs": [
        {
          "internalType": "uint256",
          "name": "positionId",
          "type": "uint256"
        }
      ],
      "name": "claimReward",
      "outputs": [
        {
          "internalType": "uint256",
          "name": "",
          "type": "uint256"
        }
      ],
      "stateMutability": "nonpayable",
      "type": "function"
    },
    {
      "inputs": [],
      "name": "emergencyMode",
      "outputs": [
        {
          "internalType": "bool",
          "name": "",
          "type": "bool"
        }
      ],
      "stateMutability": "view",
      "type": "function"
    },
    {
      "inputs": [
        {
          "internalType": "uint256",
          "name": "positionId",
          "type": "uint256"
        }
      ],
      "name": "emergencyWithdraw",
      "outputs": [],
      "stateMutability": "nonpayable",
      "type": "function"
    },
    {
      "inputs": [],
      "name": "enableEmergencyMode",
      "outputs": [],
      "stateMutability": "nonpayable",
      "type": "function"
    },
    {
      "inputs": [],
      "name": "getLockOptions",
      "outputs": [
        {
          "components": [
            {
              "internalType": "uint256",
              "name": "period",
              "type": "uint256"
            },
            {
              "internalType": "uint256",
              "name": "rewardRate",
              "type": "uint256"
            }
          ],
          "internalType": "struct IStaking.LockOption[]",
          "name": "",
          "type": "tuple[]"
        }
      ],
      "stateMutability": "view",
      "type": "function"
    },
    {
      "inputs": [
        {
          "internalType": "uint256",
          "name": "lockPeriod",
          "type": "uint256"
        }
      ],
      "name": "getRewardRate",
      "outputs": [
        {
          "internalType": "uint256",
          "name": "",
          "type": "uint256"
        }
      ],
      "stateMutability": "view",
      "type": "function"
    },
    {
      "inputs": [],
      "name": "getStakingProgress",
      "outputs": [
        {
          "internalType": "uint256",
          "name": "total",
          "type": "uint256"
        },
        {
          "internalType": "uint256",
          "name": "current",
          "type": "uint256"
        },
        {
          "internalType": "uint256",
          "name": "remaining",
          "type": "uint256"
        },
        {
          "internalType": "uint256",
          "name": "progressPercentage",
          "type": "uint256"
        }
      ],
      "stateMutability": "view",
      "type": "function"
    },
    {
      "inputs": [],
      "name": "getTotalStaked",
      "outputs": [
        {
          "internalType": "uint256",
          "name": "",
          "type": "uint256"
        }
      ],
      "stateMutability": "view",
      "type": "function"
    },
    {
      "inputs": [
        {
          "internalType": "address",
          "name": "user",
          "type": "address"
        }
      ],
      "name": "getUserPositionCount",
      "outputs": [
        {
          "internalType": "uint256",
          "name": "",
          "type": "uint256"
        }
      ],
      "stateMutability": "view",
      "type": "function"
    },
    {
      "inputs": [
        {
          "internalType": "address",
          "name": "user",
          "type": "address"
        }
      ],
      "name": "getUserPositions",
      "outputs": [
        {
          "components": [
            {
              "internalType": "uint256",
              "name": "positionId",
              "type": "uint256"
            },
            {
              "internalType": "uint256",
              "name": "amount",
              "type": "uint256"
            },
            {
              "internalType": "uint256",
              "name": "lockPeriod",
              "type": "uint256"
            },
            {
              "internalType": "uint256",
              "name": "stakedAt",
              "type": "uint256"
            },
            {
              "internalType": "uint256",
              "name": "lastRewardAt",
              "type": "uint256"
            },
            {
              "internalType": "bool",
              "name": "isUnstaked",
              "type": "bool"
            }
          ],
          "internalType": "struct IStaking.Position[]",
          "name": "",
          "type": "tuple[]"
        }
      ],
      "stateMutability": "view",
      "type": "function"
    },
    {
      "inputs": [],
      "name": "initialize",
      "outputs": [],
      "stateMutability": "nonpayable",
      "type": "function"
    },
    {
      "inputs": [
        {
          "internalType": "uint256",
          "name": "",
          "type": "uint256"
        }
      ],
      "name": "lockOptions",
      "outputs": [
        {
          "internalType": "uint256",
          "name": "period",
          "type": "uint256"
        },
        {
          "internalType": "uint256",
          "name": "rewardRate",
          "type": "uint256"
        }
      ],
      "stateMutability": "view",
      "type": "function"
    },
    {
      "inputs": [],
      "name": "maxTotalStake",
      "outputs": [
        {
          "internalType": "uint256",
          "name": "",
          "type": "uint256"
        }
      ],
      "stateMutability": "view",
      "type": "function"
    },
    {
      "inputs": [],
      "name": "minStakeAmount",
      "outputs": [
        {
          "internalType": "uint256",
          "name": "",
          "type": "uint256"
        }
      ],
      "stateMutability": "view",
      "type": "function"
    },
    {
      "inputs": [],
      "name": "nextPositionId",
      "outputs": [
        {
          "internalType": "uint256",
          "name": "",
          "type": "uint256"
        }
      ],
      "stateMutability": "view",
      "type": "function"
    },
    {
      "inputs": [],
      "name": "onlyWhitelistCanStake",
      "outputs": [
        {
          "internalType": "bool",
          "name": "",
          "type": "bool"
        }
      ],
      "stateMutability": "view",
      "type": "function"
    },
    {
      "inputs": [],
      "name": "owner",
      "outputs": [
        {
          "internalType": "address",
          "name": "",
          "type": "address"
        }
      ],
      "stateMutability": "view",
      "type": "function"
    },
    {
      "inputs": [],
      "name": "pause",
      "outputs": [],
      "stateMutability": "nonpayable",
      "type": "function"
    },
    {
      "inputs": [],
      "name": "paused",
      "outputs": [
        {
          "internalType": "bool",
          "name": "",
          "type": "bool"
        }
      ],
      "stateMutability": "view",
      "type": "function"
    },
    {
      "inputs": [],
      "name": "pendingAdmin",
      "outputs": [
        {
          "internalType": "address",
          "name": "",
          "type": "address"
        }
      ],
      "stateMutability": "view",
      "type": "function"
    },
    {
      "inputs": [
        {
          "internalType": "uint256",
          "name": "positionId",
          "type": "uint256"
        }
      ],
      "name": "pendingReward",
      "outputs": [
        {
          "internalType": "uint256",
          "name": "",
          "type": "uint256"
        }
      ],
      "stateMutability": "view",
      "type": "function"
    },
    {
      "inputs": [
        {
          "internalType": "uint256",
          "name": "",
          "type": "uint256"
        }
      ],
      "name": "positionOwner",
      "outputs": [
        {
          "internalType": "address",
          "name": "",
          "type": "address"
        }
      ],
      "stateMutability": "view",
      "type": "function"
    },
    {
      "inputs": [],
      "name": "proxiableUUID",
      "outputs": [
        {
          "internalType": "bytes32",
          "name": "",
          "type": "bytes32"
        }
      ],
      "stateMutability": "view",
      "type": "function"
    },
    {
      "inputs": [],
      "name": "remainingStakeCapacity",
      "outputs": [
        {
          "internalType": "uint256",
          "name": "",
          "type": "uint256"
        }
      ],
      "stateMutability": "view",
      "type": "function"
    },
    {
      "inputs": [
        {
          "internalType": "address",
          "name": "user",
          "type": "address"
        }
      ],
      "name": "removeFromBlacklist",
      "outputs": [],
      "stateMutability": "nonpayable",
      "type": "function"
    },
    {
      "inputs": [
        {
          "internalType": "address",
          "name": "user",
          "type": "address"
        }
      ],
      "name": "removeFromWhitelist",
      "outputs": [],
      "stateMutability": "nonpayable",
      "type": "function"
    },
    {
      "inputs": [],
      "name": "renounceOwnership",
      "outputs": [],
      "stateMutability": "nonpayable",
      "type": "function"
    },
    {
      "inputs": [],
      "name": "rewardReserve",
      "outputs": [
        {
          "internalType": "uint256",
          "name": "",
          "type": "uint256"
        }
      ],
      "stateMutability": "view",
      "type": "function"
    },
    {
      "inputs": [
        {
          "internalType": "uint256",
          "name": "newLimit",
          "type": "uint256"
        }
      ],
      "name": "setMaxTotalStake",
      "outputs": [],
      "stateMutability": "nonpayable",
      "type": "function"
    },
    {
      "inputs": [
        {
          "internalType": "uint256",
          "name": "newAmount",
          "type": "uint256"
        }
      ],
      "name": "setMinStakeAmount",
      "outputs": [],
      "stateMutability": "nonpayable",
      "type": "function"
    },
    {
      "inputs": [
        {
          "internalType": "uint256",
          "name": "newEndTime",
          "type": "uint256"
        }
      ],
      "name": "setStakeEndTime",
      "outputs": [],
      "stateMutability": "nonpayable",
      "type": "function"
    },
    {
      "inputs": [
        {
          "internalType": "uint256",
          "name": "newRate",
          "type": "uint256"
        }
      ],
      "name": "setWhitelistBonusRate",
      "outputs": [],
      "stateMutability": "nonpayable",
      "type": "function"
    },
    {
      "inputs": [
        {
          "internalType": "uint256",
          "name": "lockPeriod",
          "type": "uint256"
        }
      ],
      "name": "stake",
      "outputs": [
        {
          "internalType": "uint256",
          "name": "",
          "type": "uint256"
        }
      ],
      "stateMutability": "payable",
      "type": "function"
    },
    {
      "inputs": [],
      "name": "stakeEndTime",
      "outputs": [
        {
          "internalType": "uint256",
          "name": "",
          "type": "uint256"
        }
      ],
      "stateMutability": "view",
      "type": "function"
    },
    {
      "inputs": [],
      "name": "totalStaked",
      "outputs": [
        {
          "internalType": "uint256",
          "name": "",
          "type": "uint256"
        }
      ],
      "stateMutability": "view",
      "type": "function"
    },
    {
      "inputs": [
        {
          "internalType": "address",
          "name": "newOwner",
          "type": "address"
        }
      ],
      "name": "transferOwnership",
      "outputs": [],
      "stateMutability": "nonpayable",
      "type": "function"
    },
    {
      "inputs": [],
      "name": "unpause",
      "outputs": [],
      "stateMutability": "nonpayable",
      "type": "function"
    },
    {
      "inputs": [
        {
          "internalType": "uint256",
          "name": "positionId",
          "type": "uint256"
        }
      ],
      "name": "unstake",
      "outputs": [],
      "stateMutability": "nonpayable",
      "type": "function"
    },
    {
      "inputs": [
        {
          "internalType": "uint256",
          "name": "index",
          "type": "uint256"
        },
        {
          "internalType": "uint256",
          "name": "newPeriod",
          "type": "uint256"
        },
        {
          "internalType": "uint256",
          "name": "newRate",
          "type": "uint256"
        }
      ],
      "name": "updateLockOption",
      "outputs": [],
      "stateMutability": "nonpayable",
      "type": "function"
    },
    {
      "inputs": [
        {
          "internalType": "address",
          "name": "newImplementation",
          "type": "address"
        },
        {
          "internalType": "bytes",
          "name": "data",
          "type": "bytes"
        }
      ],
      "name": "upgradeToAndCall",
      "outputs": [],
      "stateMutability": "payable",
      "type": "function"
    },
    {
      "inputs": [
        {
          "internalType": "address",
          "name": "",
          "type": "address"
        }
      ],
      "name": "userPositionCount",
      "outputs": [
        {
          "internalType": "uint256",
          "name": "",
          "type": "uint256"
        }
      ],
      "stateMutability": "view",
      "type": "function"
    },
    {
      "inputs": [
        {
          "internalType": "address",
          "name": "",
          "type": "address"
        },
        {
          "internalType": "uint256",
          "name": "",
          "type": "uint256"
        }
      ],
      "name": "userPositions",
      "outputs": [
        {
          "internalType": "uint256",
          "name": "positionId",
          "type": "uint256"
        },
        {
          "internalType": "uint256",
          "name": "amount",
          "type": "uint256"
        },
        {
          "internalType": "uint256",
          "name": "lockPeriod",
          "type": "uint256"
        },
        {
          "internalType": "uint256",
          "name": "stakedAt",
          "type": "uint256"
        },
        {
          "internalType": "uint256",
          "name": "lastRewardAt",
          "type": "uint256"
        },
        {
          "internalType": "bool",
          "name": "isUnstaked",
          "type": "bool"
        }
      ],
      "stateMutability": "view",
      "type": "function"
    },
    {
      "inputs": [
        {
          "internalType": "address",
          "name": "",
          "type": "address"
        }
      ],
      "name": "userTotalStaked",
      "outputs": [
        {
          "internalType": "uint256",
          "name": "",
          "type": "uint256"
        }
      ],
      "stateMutability": "view",
      "type": "function"
    },
    {
      "inputs": [],
      "name": "version",
      "outputs": [
        {
          "internalType": "string",
          "name": "",
          "type": "string"
        }
      ],
      "stateMutability": "pure",
      "type": "function"
    },
    {
      "inputs": [],
      "name": "whitelistBonusRate",
      "outputs": [
        {
          "internalType": "uint256",
          "name": "",
          "type": "uint256"
        }
      ],
      "stateMutability": "view",
      "type": "function"
    },
    {
      "inputs": [
        {
          "internalType": "address",
          "name": "",
          "type": "address"
        }
      ],
      "name": "whitelisted",
      "outputs": [
        {
          "internalType": "bool",
          "name": "",
          "type": "bool"
        }
      ],
      "stateMutability": "view",
      "type": "function"
    },
    {
      "stateMutability": "payable",
      "type": "receive"
    }
  ],
  "bytecode": "0x60a06040523060805234801561001457600080fd5b5061001d610022565b6100d4565b7ff0c57e16840df040f15088dc2f81fe391c3923bec73e23a9662efc9c229c6a00805468010000000000000000900460ff16156100725760405163f92ee8a960e01b815260040160405180910390fd5b80546001600160401b03908116146100d15780546001600160401b0319166001600160401b0390811782556040519081527fc7f505b2f371ae2175ee4913f4499e1f2633a7b5936321eed1cdaeb6115181d29060200160405180910390a15b50565b6080516133d16100fd600039600081816126d2015281816126fb015261286401526133d16000f3fe6080604052600436106103035760003560e01c8063719de1ef11610190578063b0f6b8f1116100dc578063e43252d711610095578063f2fde38b1161006f578063f2fde38b146109e1578063f76314e914610a01578063f851a44014610a1b578063fafcca8c14610a3b57600080fd5b8063e43252d71461098b578063eb4af045146109ab578063f1887684146109cb57600080fd5b8063b0f6b8f1146108b5578063b3060d36146108ca578063c5b1c7d014610900578063cab64bcd14610915578063d936547e1461092b578063dbac26e91461095b57600080fd5b80638ab1d68111610149578063a694fc3a11610123578063a694fc3a1461081c578063a7d9131f1461082f578063ad3cb1cc14610864578063ae169a501461089557600080fd5b80638ab1d6811461079f5780638da5cb5b146107bf578063a6513562146107fc57600080fd5b8063719de1ef146106fc578063747cfc3a146107295780638129fc1c14610749578063817b1cd21461075e5780638456cb5914610774578063899346c71461078957600080fd5b80633f4ba83a1161024f57806354fd4d50116102085780635ea6bbfd116101e25780635ea6bbfd1461069957806364904071146106bb57806368db96a6146106d1578063715018a6146106e757600080fd5b806354fd4d50146105ee5780635c975abb146106255780635e1b4d991461064a57600080fd5b80633f4ba83a1461055157806344337ea1146105665780634f1ef2861461058657806352d1902d146105995780635312ea8e146105ae578063537df3b6146105ce57600080fd5b806312f7086c116102bc5780632a6bc2dd116102965780632a6bc2dd146104ae5780632c28d369146104db5780632e17de78146104fb57806331e8a7ef1461051b57600080fd5b806312f7086c146104365780631ee2a99f14610456578063267822471461047657600080fd5b806306015e6514610344578063081b82d1146103665780630905f560146103865780630917e776146103b55780630918eb14146103d45780630b20e7d11461040157600080fd5b3661033f5760405134815233907f88a5966d370b9919b20f3e2c13ff65706f196a4e32cc2c12bf57088f885258749060200160405180910390a2005b600080fd5b34801561035057600080fd5b5061036461035f366004612e31565b610a51565b005b34801561037257600080fd5b50610364610381366004612e4a565b610b19565b34801561039257600080fd5b506036546103a09060ff1681565b60405190151581526020015b60405180910390f35b3480156103c157600080fd5b506031545b6040519081526020016103ac565b3480156103e057600080fd5b506103c66103ef366004612e8d565b60356020526000908152604090205481565b34801561040d57600080fd5b50610416610c99565b6040805194855260208501939093529183015260608201526080016103ac565b34801561044257600080fd5b506103c6610451366004612e31565b610ce3565b34801561046257600080fd5b50610364610471366004612ea8565b610f02565b34801561048257600080fd5b50603954610496906001600160a01b031681565b6040516001600160a01b0390911681526020016103ac565b3480156104ba57600080fd5b506104ce6104c9366004612e8d565b6110fa565b6040516103ac9190612eca565b3480156104e757600080fd5b506103646104f6366004612e31565b6111aa565b34801561050757600080fd5b50610364610516366004612e31565b61125b565b34801561052757600080fd5b506103c6610536366004612e8d565b6001600160a01b031660009081526035602052604090205490565b34801561055d57600080fd5b506103646115e7565b34801561057257600080fd5b50610364610581366004612e8d565b611652565b610364610594366004612f5f565b6116a1565b3480156105a557600080fd5b506103c66116c0565b3480156105ba57600080fd5b506103646105c9366004612e31565b6116dd565b3480156105da57600080fd5b506103646105e9366004612e8d565b611a24565b3480156105fa57600080fd5b506040805180820190915260058152640312e302e360dc1b60208201525b6040516103ac919061304d565b34801561063157600080fd5b5060008051602061335c8339815191525460ff166103a0565b34801561065657600080fd5b5061066a610665366004613080565b611a70565b6040805196875260208701959095529385019290925260608401526080830152151560a082015260c0016103ac565b3480156106a557600080fd5b506106ae611ac7565b6040516103ac91906130aa565b3480156106c757600080fd5b506103c6603f5481565b3480156106dd57600080fd5b506103c6603e5481565b3480156106f357600080fd5b50610364611b3a565b34801561070857600080fd5b506103c6610717366004612e8d565b603b6020526000908152604090205481565b34801561073557600080fd5b50610364610744366004612e31565b611b4e565b34801561075557600080fd5b50610364611c04565b34801561076a57600080fd5b506103c660315481565b34801561078057600080fd5b50610364611d47565b34801561079557600080fd5b506103c660325481565b3480156107ab57600080fd5b506103646107ba366004612e8d565b611dac565b3480156107cb57600080fd5b507f9016d09d72d40fdae2fd8ceac6b6234c7706214fd39c1cd1e609a0528c199300546001600160a01b0316610496565b34801561080857600080fd5b506103c6610817366004612e31565b611e2d565b6103c661082a366004612e31565b611eb1565b34801561083b57600080fd5b5061084f61084a366004612e31565b612122565b604080519283526020830191909152016103ac565b34801561087057600080fd5b50610618604051806040016040528060058152602001640352e302e360dc1b81525081565b3480156108a157600080fd5b506103c66108b0366004612e31565b612150565b3480156108c157600080fd5b506103c661232e565b3480156108d657600080fd5b506104966108e5366004612e31565b6037602052600090815260409020546001600160a01b031681565b34801561090c57600080fd5b50610364612356565b34801561092157600080fd5b506103c6603a5481565b34801561093757600080fd5b506103a0610946366004612e8d565b603d6020526000908152604090205460ff1681565b34801561096757600080fd5b506103a0610976366004612e8d565b603c6020526000908152604090205460ff1681565b34801561099757600080fd5b506103646109a6366004612e8d565b612390565b3480156109b757600080fd5b506103646109c6366004612e31565b612412565b3480156109d757600080fd5b506103c660305481565b3480156109ed57600080fd5b506103646109fc366004612e8d565b612442565b348015610a0d57600080fd5b506041546103a09060ff1681565b348015610a2757600080fd5b50603854610496906001600160a01b031681565b348015610a4757600080fd5b506103c660405481565b6038546001600160a01b03163314610a7c57604051634755657960e01b815260040160405180910390fd5b603154811015610ad35760405162461bcd60e51b815260206004820152601d60248201527f4e6577206c696d69742062656c6f772063757272656e74207374616b6500000060448201526064015b60405180910390fd5b603f80549082905560408051828152602081018490527f0573f641e402aac2bf5c32729e7af1f5ec12cc2a589e111f726960e09fd42a0791015b60405180910390a15050565b6038546001600160a01b03163314610b4457604051634755657960e01b815260040160405180910390fd5b6033548310610b855760405162461bcd60e51b815260206004820152600d60248201526c092dcecc2d8d2c840d2dcc8caf609b1b6044820152606401610aca565b60405163c29d0dcf60e01b8152600481018390526024810182905273__$365e043523541e2f11562b1dc3913f13bd$__9063c29d0dcf90604401602060405180830381865af4158015610bdc573d6000803e3d6000fd5b505050506040513d601f19601f82011682018060405250810190610c0091906130ee565b610c425760405162461bcd60e51b815260206004820152601360248201527224b73b30b634b2103637b1b59037b83a34b7b760691b6044820152606401610aca565b8160338481548110610c5657610c56613110565b9060005260206000209060020201600001819055508060338481548110610c7f57610c7f613110565b906000526020600020906002020160010181905550505050565b603f5460315460008083831015610cbf57603154603f54610cba919061313c565b610cc2565b60005b915083610cd18461271061314f565b610cdb9190613166565b905090919293565b33600090815260346020908152604080832080548251818502810185019093528083528493849084015b82821015610d7a5760008481526020908190206040805160c08101825260068602909201805483526001808201548486015260028201549284019290925260038101546060840152600481015460808401526005015460ff16151560a08301529083529092019101610d0d565b50505050905060005b8151811015610ef8576000828281518110610da057610da0613110565b60200260200101519050848160000151148015610dbf57508060a00151155b15610eef576000816080015142610dd6919061313c565b9050600073__$365e043523541e2f11562b1dc3913f13bd$__6301629341846040015160336040518363ffffffff1660e01b8152600401610e18929190613188565b602060405180830381865af4158015610e35573d6000803e3d6000fd5b505050506040513d601f19601f82011682018060405250810190610e5991906131e7565b602084015160405163a8e62b9760e01b81526004810191909152602481018490526044810182905290915073__$365e043523541e2f11562b1dc3913f13bd$__9063a8e62b9790606401602060405180830381865af4158015610ec0573d6000803e3d6000fd5b505050506040513d601f19601f82011682018060405250810190610ee491906131e7565b979650505050505050565b50600101610d83565b5060009392505050565b6038546001600160a01b03163314610f2d57604051634755657960e01b815260040160405180910390fd5b60405163c29d0dcf60e01b8152600481018390526024810182905273__$365e043523541e2f11562b1dc3913f13bd$__9063c29d0dcf90604401602060405180830381865af4158015610f84573d6000803e3d6000fd5b505050506040513d601f19601f82011682018060405250810190610fa891906130ee565b610fea5760405162461bcd60e51b815260206004820152601360248201527224b73b30b634b2103637b1b59037b83a34b7b760691b6044820152606401610aca565b60005b60335481101561104357826033828154811061100b5761100b613110565b9060005260206000209060020201600001540361103b576040516302e8f35960e31b815260040160405180910390fd5b600101610fed565b5060408051808201825283815260208082018481526033805460018101825560009190915292517f82a75bdeeae8604d839476ae9efd8b0e15aa447e21bfd7f41283bb54e22c9a82600290940293840155517f82a75bdeeae8604d839476ae9efd8b0e15aa447e21bfd7f41283bb54e22c9a8390920191909155815184815290810183905242918101919091527f2a7d636d9d2351ed68dd8c5eccf08e842b6f81cc70ba2c5d65ec4b6ab47ff77f90606001610b0d565b6001600160a01b0381166000908152603460209081526040808320805482518185028101850190935280835260609492939192909184015b8282101561119f5760008481526020908190206040805160c08101825260068602909201805483526001808201548486015260028201549284019290925260038101546060840152600481015460808401526005015460ff16151560a08301529083529092019101611132565b505050509050919050565b6038546001600160a01b031633146111d557604051634755657960e01b815260040160405180910390fd5b61138881111561121d5760405162461bcd60e51b8152602060048201526013602482015272084dedceae640e4c2e8ca40e8dede40d0d2ced606b1b6044820152606401610aca565b603e80549082905560408051828152602081018490527f245efa5f95442f5dd652d0e5f92d14a65257a76a7351a09087394c1d2950ef919101610b0d565b61126361247d565b60008181526037602052604090205481906001600160a01b0316331461129c57604051636ec9be1160e01b815260040160405180910390fd5b336000908152603460205260408120908080805b845481101561131957868582815481106112cc576112cc613110565b90600052602060002090600602016000015403611311578481815481106112f5576112f5613110565b9060005260206000209060060201935080925060019150611319565b6001016112b0565b508061133857604051636ec9be1160e01b815260040160405180910390fd5b83828154811061134a5761134a613110565b60009182526020909120600690910201600581015490935060ff161561138357604051636ec9be1160e01b815260040160405180910390fd5b826002015483600301546113979190613200565b4210156113b757604051636100d92960e11b815260040160405180910390fd5b60006113c333846124b5565b60018086015460058701805460ff1916909217909155336000908152603b6020526040812080549394509192839291906113fe90849061313c565b925050819055508060316000828254611417919061313c565b909155505081156114f157604051600090339084908381818185875af1925050503d8060008114611464576040519150601f19603f3d011682016040523d82523d6000602084013e611469565b606091505b50509050806114b35760405162461bcd60e51b815260206004820152601660248201527514995dd85c99081d1c985b9cd9995c8819985a5b195960521b6044820152606401610aca565b604080518481524260208201528a9133917f812be816db82c66cd18ca8457005cd84689642d8ac4d38599cc6af444a2dc72a910160405180910390a3505b604051600090339083908381818185875af1925050503d8060008114611533576040519150601f19603f3d011682016040523d82523d6000602084013e611538565b606091505b50509050806115895760405162461bcd60e51b815260206004820152601760248201527f556e7374616b65207472616e73666572206661696c65640000000000000000006044820152606401610aca565b604080518381524260208201528a9133917f3ff5d92f4a9e211f1b90950ab368cb14f7755425cfbcb14ec546777e5da856bc910160405180910390a350505050505050506115e4600160008051602061337c83398151915255565b50565b6038546001600160a01b0316331461161257604051634755657960e01b815260040160405180910390fd5b61161a612667565b60405142815233907f8cc793e6a5897cb74020ea799628f88bc1dcdc85917d87f1345f33fa881f754b906020015b60405180910390a2565b6038546001600160a01b0316331461167d57604051634755657960e01b815260040160405180910390fd5b6001600160a01b03166000908152603c60205260409020805460ff19166001179055565b6116a96126c7565b6116b28261276c565b6116bc8282612797565b5050565b60006116ca612859565b5060008051602061333c83398151915290565b6116e561247d565b60365460ff1661172f5760405162461bcd60e51b81526020600482015260156024820152744e6f7420696e20656d657267656e6379206d6f646560581b6044820152606401610aca565b6000818152603760205260409020546001600160a01b0316331461178a5760405162461bcd60e51b81526020600482015260126024820152712737ba103837b9b4ba34b7b71037bbb732b960711b6044820152606401610aca565b336000908152603460205260408120908080805b845481101561183a57858582815481106117ba576117ba613110565b9060005260206000209060060201600001541480156117ff57508481815481106117e6576117e6613110565b600091825260209091206005600690920201015460ff16155b156118325784818154811061181657611816613110565b906000526020600020906006020193508092506001915061183a565b60010161179e565b50806118975760405162461bcd60e51b815260206004820152602660248201527f506f736974696f6e206e6f7420666f756e64206f7220616c726561647920756e6044820152651cdd185ad95960d21b6064820152608401610aca565b60008483815481106118ab576118ab613110565b906000526020600020906006020160010154905060018584815481106118d3576118d3613110565b60009182526020808320600692909202909101600501805460ff191693151593909317909255338152603b90915260408120805483929061191590849061313c565b92505081905550806031600082825461192e919061313c565b9091555050604051600090339083908381818185875af1925050503d8060008114611975576040519150601f19603f3d011682016040523d82523d6000602084013e61197a565b606091505b50509050806119cb5760405162461bcd60e51b815260206004820152601960248201527f456d657267656e6379207769746864726177206661696c6564000000000000006044820152606401610aca565b60408051838152426020820152889133917f45df01186fed55abc3ac9cfa82408e10553b9b93a8f0c0b4c2965a7bedb267ec910160405180910390a35050505050506115e4600160008051602061337c83398151915255565b6038546001600160a01b03163314611a4f57604051634755657960e01b815260040160405180910390fd5b6001600160a01b03166000908152603c60205260409020805460ff19169055565b60346020528160005260406000208181548110611a8c57600080fd5b600091825260209091206006909102018054600182015460028301546003840154600485015460059095015493965091945092909160ff1686565b60606033805480602002602001604051908101604052809291908181526020016000905b82821015611b3157838290600052602060002090600202016040518060400160405290816000820154815260200160018201548152505081526020019060010190611aeb565b50505050905090565b611b426128a2565b611b4c60006128fd565b565b6038546001600160a01b03163314611b7957604051634755657960e01b815260040160405180910390fd5b428111611bc85760405162461bcd60e51b815260206004820152601a60248201527f456e642074696d65206d75737420626520696e206675747572650000000000006044820152606401610aca565b6040805482825581518181526020810184905290917eb0b5d614202bbc0e0b82f7fc4b4d1463f5a6603fb779ad54a14990640477079101610b0d565b7ff0c57e16840df040f15088dc2f81fe391c3923bec73e23a9662efc9c229c6a008054600160401b810460ff16159067ffffffffffffffff16600081158015611c4a5750825b905060008267ffffffffffffffff166001148015611c675750303b155b905081158015611c75575080155b15611c935760405163f92ee8a960e01b815260040160405180910390fd5b845467ffffffffffffffff191660011785558315611cbd57845460ff60401b1916600160401b1785555b611cc561296e565b611ccd61297e565b611cd63361298e565b611cde61299f565b611ce7336129a7565b6000196040556041805460ff191660011790558315611d4057845460ff60401b19168555604051600181527fc7f505b2f371ae2175ee4913f4499e1f2633a7b5936321eed1cdaeb6115181d29060200160405180910390a15b5050505050565b6038546001600160a01b03163314611d7257604051634755657960e01b815260040160405180910390fd5b611d7a612b35565b60405142815233907f256910c06b67f0167a9e42db4b9d766ac2eb6c2151ca5bfee80937cdb293d78a90602001611648565b6038546001600160a01b03163314611dd757604051634755657960e01b815260040160405180910390fd5b6001600160a01b0381166000818152603d60209081526040808320805460ff19169055519182527f8daaf060c3306c38e068a75c054bf96ecd85a3db1252712c4d93632744c42e0d91015b60405180910390a250565b604051630162934160e01b815260009073__$365e043523541e2f11562b1dc3913f13bd$__90630162934190611e6a908590603390600401613188565b602060405180830381865af4158015611e87573d6000803e3d6000fd5b505050506040513d601f19601f82011682018060405250810190611eab91906131e7565b92915050565b6000611ebb61247d565b611ec3612b7e565b336000908152603c602052604090205460ff1615611ef4576040516309550c7760e01b815260040160405180910390fd5b60305460405163169b8a1960e21b81523460048201819052602482019290925273__$365e043523541e2f11562b1dc3913f13bd$__90635a6e286490604401602060405180830381865af4158015611f50573d6000803e3d6000fd5b505050506040513d601f19601f82011682018060405250810190611f7491906131e7565b9050603f5481603154611f879190613200565b1115611fa6576040516302a21e4360e11b815260040160405180910390fd5b6032805460009182611fb783613213565b909155506040805160c0810182528281526020808201868152828401898152426060850181815260808601918252600060a0870181815233808352603488528983208054600180820183559185528985208b51600690920201908155975190880155945160028701559151600386015591516004850155516005909301805460ff19169315159390931790925581526035909152918220805493945090929161205f83613213565b9091555050600082815260376020908152604080832080546001600160a01b031916339081179091558352603b909152812080548592906120a1908490613200565b9250508190555082603160008282546120ba9190613200565b9091555050604080518481526020810187905242818301529051839133917f037a51f308bffa1811b7db6ec701b1d1ba493e6fa3cb1fcec4167f3ea1183db39181900360600190a35091505061211d600160008051602061337c83398151915255565b919050565b6033818154811061213257600080fd5b60009182526020909120600290910201805460019091015490915082565b600061215a61247d565b612162612b7e565b60008281526037602052604090205482906001600160a01b0316331461219b57604051636ec9be1160e01b815260040160405180910390fd5b3360009081526034602052604081209080805b83548110156121f557868482815481106121ca576121ca613110565b906000526020600020906006020160000154036121ed57809250600191506121f5565b6001016121ae565b508061221457604051636ec9be1160e01b815260040160405180910390fd5b600061222033846124b5565b9050806000036122435760405163374c934360e11b815260040160405180910390fd5b604051600090339083908381818185875af1925050503d8060008114612285576040519150601f19603f3d011682016040523d82523d6000602084013e61228a565b606091505b50509050806122d45760405162461bcd60e51b815260206004820152601660248201527514995dd85c99081d1c985b9cd9995c8819985a5b195960521b6044820152606401610aca565b60408051838152426020820152899133917f812be816db82c66cd18ca8457005cd84689642d8ac4d38599cc6af444a2dc72a910160405180910390a35094505050505061211d600160008051602061337c83398151915255565b6000603f54603154106123415750600090565b603154603f54612351919061313c565b905090565b6038546001600160a01b0316331461238157604051634755657960e01b815260040160405180910390fd5b6036805460ff19166001179055565b6038546001600160a01b031633146123bb57604051634755657960e01b815260040160405180910390fd5b6001600160a01b0381166000818152603d6020908152604091829020805460ff1916600190811790915591519182527f8daaf060c3306c38e068a75c054bf96ecd85a3db1252712c4d93632744c42e0d9101611e22565b6038546001600160a01b0316331461243d57604051634755657960e01b815260040160405180910390fd5b603055565b61244a6128a2565b6001600160a01b03811661247457604051631e4fbdf760e01b815260006004820152602401610aca565b6115e4816128fd565b60008051602061337c8339815191528054600119016124af57604051633ee5aeb560e01b815260040160405180910390fd5b60029055565b6001600160a01b03821660009081526034602052604081208054829190849081106124e2576124e2613110565b60009182526020909120600690910201600581015490915060ff161561250c576000915050611eab565b600081600401544261251e919061313c565b90508060000361253357600092505050611eab565b6002820154604051630162934160e01b815260009173__$365e043523541e2f11562b1dc3913f13bd$__9163016293419161257391603390600401613188565b602060405180830381865af4158015612590573d6000803e3d6000fd5b505050506040513d601f19601f820116820180604052508101906125b491906131e7565b600184015460405163a8e62b9760e01b81526004810191909152602481018490526044810182905290915073__$365e043523541e2f11562b1dc3913f13bd$__9063a8e62b9790606401602060405180830381865af415801561261b573d6000803e3d6000fd5b505050506040513d601f19601f8201168201806040525081019061263f91906131e7565b935042836004018190555050505092915050565b600160008051602061337c83398151915255565b61266f612baf565b60008051602061335c833981519152805460ff191681557f5db9ee0a495bf2e6ff9c91a7834c1ba4fdd244a5e8aa4e537bd38aeae4b073aa335b6040516001600160a01b03909116815260200160405180910390a150565b306001600160a01b037f000000000000000000000000000000000000000000000000000000000000000016148061274e57507f00000000000000000000000000000000000000000000000000000000000000006001600160a01b031661274260008051602061333c833981519152546001600160a01b031690565b6001600160a01b031614155b15611b4c5760405163703e46dd60e11b815260040160405180910390fd5b6038546001600160a01b031633146115e457604051634755657960e01b815260040160405180910390fd5b816001600160a01b03166352d1902d6040518163ffffffff1660e01b8152600401602060405180830381865afa9250505080156127f1575060408051601f3d908101601f191682019092526127ee918101906131e7565b60015b61281957604051634c9c8ce360e01b81526001600160a01b0383166004820152602401610aca565b60008051602061333c833981519152811461284a57604051632a87526960e21b815260048101829052602401610aca565b6128548383612bdf565b505050565b306001600160a01b037f00000000000000000000000000000000000000000000000000000000000000001614611b4c5760405163703e46dd60e11b815260040160405180910390fd5b336128d47f9016d09d72d40fdae2fd8ceac6b6234c7706214fd39c1cd1e609a0528c199300546001600160a01b031690565b6001600160a01b031614611b4c5760405163118cdaa760e01b8152336004820152602401610aca565b7f9016d09d72d40fdae2fd8ceac6b6234c7706214fd39c1cd1e609a0528c19930080546001600160a01b031981166001600160a01b03848116918217845560405192169182907f8be0079c531659141344cd1fd0a4f28419497f9722a3daafe3b4186f6b6457e090600090a3505050565b612976612c35565b611b4c612c7e565b612986612c35565b611b4c612c86565b612996612c35565b6115e481612ca7565b611b4c612c35565b6129af612c35565b6001600160a01b038116612a055760405162461bcd60e51b815260206004820152601a60248201527f5374616b696e6753746f726167653a207a65726f2061646d696e0000000000006044820152606401610aca565b603880546001600160a01b0383166001600160a01b03199091161790556041805461ff001916610100179055612a3d6012600a613313565b612a4890606461314f565b6030556001603281905560408051808201825262ed4e00815261029460208083019182526033805480870182556000828152945160029182027f82a75bdeeae8604d839476ae9efd8b0e15aa447e21bfd7f41283bb54e22c9a828181019290925594517f82a75bdeeae8604d839476ae9efd8b0e15aa447e21bfd7f41283bb54e22c9a839586015586518088019097526301da9c00875261058c93870193845282549788018355919094529351949092029283019390935551910155612b106012600a613313565b612b1c9061271061314f565b603f55506000196040556041805460ff19166001179055565b612b3d612b7e565b60008051602061335c833981519152805460ff191660011781557f62e78cea01bee320cd4e420270b5ea74000d11b0c9f74754ebdbfc544b05a258336126a9565b60008051602061335c8339815191525460ff1615611b4c5760405163d93c066560e01b815260040160405180910390fd5b60008051602061335c8339815191525460ff16611b4c57604051638dfc202b60e01b815260040160405180910390fd5b612be882612caf565b6040516001600160a01b038316907fbc7cd75a20ee27fd9adebab32041f755214dbc6bffa90cc0225b39da2e5c2d3b90600090a2805115612c2d576128548282612d14565b6116bc612d8a565b7ff0c57e16840df040f15088dc2f81fe391c3923bec73e23a9662efc9c229c6a0054600160401b900460ff16611b4c57604051631afcd79f60e31b815260040160405180910390fd5b612653612c35565b612c8e612c35565b60008051602061335c833981519152805460ff19169055565b61244a612c35565b806001600160a01b03163b600003612ce557604051634c9c8ce360e01b81526001600160a01b0382166004820152602401610aca565b60008051602061333c83398151915280546001600160a01b0319166001600160a01b0392909216919091179055565b6060600080846001600160a01b031684604051612d31919061331f565b600060405180830381855af49150503d8060008114612d6c576040519150601f19603f3d011682016040523d82523d6000602084013e612d71565b606091505b5091509150612d81858383612da9565b95945050505050565b3415611b4c5760405163b398979f60e01b815260040160405180910390fd5b606082612dbe57612db982612e08565b612e01565b8151158015612dd557506001600160a01b0384163b155b15612dfe57604051639996b31560e01b81526001600160a01b0385166004820152602401610aca565b50805b9392505050565b805115612e185780518082602001fd5b60405163d6bda27560e01b815260040160405180910390fd5b600060208284031215612e4357600080fd5b5035919050565b600080600060608486031215612e5f57600080fd5b505081359360208301359350604090920135919050565b80356001600160a01b038116811461211d57600080fd5b600060208284031215612e9f57600080fd5b612e0182612e76565b60008060408385031215612ebb57600080fd5b50508035926020909101359150565b602080825282518282018190526000918401906040840190835b81811015612f3e578351805184526020810151602085015260408101516040850152606081015160608501526080810151608085015260a0810151151560a08501525060c083019250602084019350600181019050612ee4565b509095945050505050565b634e487b7160e01b600052604160045260246000fd5b60008060408385031215612f7257600080fd5b612f7b83612e76565b9150602083013567ffffffffffffffff811115612f9757600080fd5b8301601f81018513612fa857600080fd5b803567ffffffffffffffff811115612fc257612fc2612f49565b604051601f8201601f19908116603f0116810167ffffffffffffffff81118282101715612ff157612ff1612f49565b60405281815282820160200187101561300957600080fd5b816020840160208301376000602083830101528093505050509250929050565b60005b8381101561304457818101518382015260200161302c565b50506000910152565b602081526000825180602084015261306c816040850160208701613029565b601f01601f19169190910160400192915050565b6000806040838503121561309357600080fd5b61309c83612e76565b946020939093013593505050565b602080825282518282018190526000918401906040840190835b81811015612f3e5783518051845260209081015181850152909301926040909201916001016130c4565b60006020828403121561310057600080fd5b81518015158114612e0157600080fd5b634e487b7160e01b600052603260045260246000fd5b634e487b7160e01b600052601160045260246000fd5b81810381811115611eab57611eab613126565b8082028115828204841417611eab57611eab613126565b60008261318357634e487b7160e01b600052601260045260246000fd5b500490565b60006040820184835260406020840152808454808352606085019150856000526020600020925060005b818110156131db57835483526001808501546020850152600290940193604090930192016131b2565b50909695505050505050565b6000602082840312156131f957600080fd5b5051919050565b80820180821115611eab57611eab613126565b60006001820161322557613225613126565b5060010190565b6001815b60018411156132675780850481111561324b5761324b613126565b600184161561325957908102905b60019390931c928002613230565b935093915050565b60008261327e57506001611eab565b8161328b57506000611eab565b81600181146132a157600281146132ab576132c7565b6001915050611eab565b60ff8411156132bc576132bc613126565b50506001821b611eab565b5060208310610133831016604e8410600b84101617156132ea575081810a611eab565b6132f7600019848461322c565b806000190482111561330b5761330b613126565b029392505050565b6000612e01838361326f565b60008251613331818460208701613029565b919091019291505056fe360894a13ba1a3210667c828492db98dca3e2076cc3735a920a3ca505d382bbccd5ed15c6e187e77e9aee88184c21f4f2182ab5827cb3b7e07fbedcd63f033009b779b17422d0df92223018b32b4d1fa46e071723d6817e2486d003becc55f00a26469706673582212200f85957313e7355da353a51c3c8f2f554f6d5d9aa74a637b5b78fe068492d78964736f6c634300081b0033",
  "linkReferences": {
    "contracts/libraries/StakingLib.sol": {
      "StakingLib": [
        {
          "length": 20,
          "start": 3231
        },
        {
          "length": 20,
          "start": 3801
        },
        {
          "length": 20,
          "start": 3971
        },
        {
          "length": 20,
          "start": 4167
        },
        {
          "length": 20,
          "start": 7996
        },
        {
          "length": 20,
          "start": 8211
        },
        {
          "length": 20,
          "start": 9799
        },
        {
          "length": 20,
          "start": 9950
        }
      ]
    }
  },
  "deployedLinkReferences": {
    "contracts/libraries/StakingLib.sol": {
      "StakingLib": [
        {
          "length": 20,
          "start": 2978
        },
        {
          "length": 20,
          "start": 3548
        },
        {
          "length": 20,
          "start": 3718
        },
        {
          "length": 20,
          "start": 3914
        },
        {
          "length": 20,
          "start": 7743
        },
        {
          "length": 20,
          "start": 7958
        },
        {
          "length": 20,
          "start": 9546
        },
        {
          "length": 20,
          "start": 9697
        }
      ]
    }
  }
}