{
  "_format": "hh-sol-artifact-1",
  "contractName": "Layer2Staking",
  "sourceName": "contracts/staking.sol",
  "abi": [
    {
      "inputs": [],
      "stateMutability": "nonpayable",
      "type": "constructor"
    },
    {
      "inputs": [
        {
          "internalType": "address",
          "name": "target",
          "type": "address"
        }
      ],
      "name": "AddressEmptyCode",
      "type": "error"
    },
    {
      "inputs": [],
      "name": "AlreadyUnstaked",
      "type": "error"
    },
    {
      "inputs": [],
      "name": "Blacklisted",
      "type": "error"
    },
    {
      "inputs": [
        {
          "internalType": "address",
          "name": "implementation",
          "type": "address"
        }
      ],
      "name": "ERC1967InvalidImplementation",
      "type": "error"
    },
    {
      "inputs": [],
      "name": "ERC1967NonPayable",
      "type": "error"
    },
    {
      "inputs": [],
      "name": "EmergencyOnly",
      "type": "error"
    },
    {
      "inputs": [],
      "name": "EnforcedPause",
      "type": "error"
    },
    {
      "inputs": [],
      "name": "ExpectedPause",
      "type": "error"
    },
    {
      "inputs": [],
      "name": "FailedCall",
      "type": "error"
    },
    {
      "inputs": [],
      "name": "InsufficientReward",
      "type": "error"
    },
    {
      "inputs": [],
      "name": "InvalidAmount",
      "type": "error"
    },
    {
      "inputs": [],
      "name": "InvalidInitialization",
      "type": "error"
    },
    {
      "inputs": [],
      "name": "InvalidMaxStakeLimit",
      "type": "error"
    },
    {
      "inputs": [],
      "name": "InvalidPeriod",
      "type": "error"
    },
    {
      "inputs": [],
      "name": "MaxTotalStakeExceeded",
      "type": "error"
    },
    {
      "inputs": [],
      "name": "NoReward",
      "type": "error"
    },
    {
      "inputs": [],
      "name": "NotInitializing",
      "type": "error"
    },
    {
      "inputs": [],
      "name": "OnlyAdmin",
      "type": "error"
    },
    {
      "inputs": [
        {
          "internalType": "address",
          "name": "owner",
          "type": "address"
        }
      ],
      "name": "OwnableInvalidOwner",
      "type": "error"
    },
    {
      "inputs": [
        {
          "internalType": "address",
          "name": "account",
          "type": "address"
        }
      ],
      "name": "OwnableUnauthorizedAccount",
      "type": "error"
    },
    {
      "inputs": [],
      "name": "PositionNotFound",
      "type": "error"
    },
    {
      "inputs": [],
      "name": "ReentrancyGuardReentrantCall",
      "type": "error"
    },
    {
      "inputs": [],
      "name": "StillLocked",
      "type": "error"
    },
    {
      "inputs": [],
      "name": "UUPSUnauthorizedCallContext",
      "type": "error"
    },
    {
      "inputs": [
        {
          "internalType": "bytes32",
          "name": "slot",
          "type": "bytes32"
        }
      ],
      "name": "UUPSUnsupportedProxiableUUID",
      "type": "error"
    },
    {
      "anonymous": false,
      "inputs": [
        {
          "indexed": true,
          "internalType": "address",
          "name": "user",
          "type": "address"
        },
        {
          "indexed": true,
          "internalType": "uint256",
          "name": "positionId",
          "type": "uint256"
        },
        {
          "indexed": false,
          "internalType": "uint256",
          "name": "amount",
          "type": "uint256"
        },
        {
          "indexed": false,
          "internalType": "uint256",
          "name": "timestamp",
          "type": "uint256"
        }
      ],
      "name": "EmergencyWithdrawn",
      "type": "event"
    },
    {
      "anonymous": false,
      "inputs": [
        {
          "indexed": false,
          "internalType": "uint64",
          "name": "version",
          "type": "uint64"
        }
      ],
      "name": "Initialized",
      "type": "event"
    },
    {
      "anonymous": false,
      "inputs": [
        {
          "indexed": false,
          "internalType": "uint256",
          "name": "period",
          "type": "uint256"
        },
        {
          "indexed": false,
          "internalType": "uint256",
          "name": "rewardRate",
          "type": "uint256"
        },
        {
          "indexed": false,
          "internalType": "uint256",
          "name": "timestamp",
          "type": "uint256"
        }
      ],
      "name": "LockOptionAdded",
      "type": "event"
    },
    {
      "anonymous": false,
      "inputs": [
        {
          "indexed": false,
          "internalType": "uint256",
          "name": "oldLimit",
          "type": "uint256"
        },
        {
          "indexed": false,
          "internalType": "uint256",
          "name": "newLimit",
          "type": "uint256"
        }
      ],
      "name": "MaxTotalStakeUpdated",
      "type": "event"
    },
    {
      "anonymous": false,
      "inputs": [
        {
          "indexed": true,
          "internalType": "address",
          "name": "previousOwner",
          "type": "address"
        },
        {
          "indexed": true,
          "internalType": "address",
          "name": "newOwner",
          "type": "address"
        }
      ],
      "name": "OwnershipTransferred",
      "type": "event"
    },
    {
      "anonymous": false,
      "inputs": [
        {
          "indexed": false,
          "internalType": "address",
          "name": "account",
          "type": "address"
        }
      ],
      "name": "Paused",
      "type": "event"
    },
    {
      "anonymous": false,
      "inputs": [
        {
          "indexed": true,
          "internalType": "address",
          "name": "user",
          "type": "address"
        },
        {
          "indexed": true,
          "internalType": "uint256",
          "name": "positionId",
          "type": "uint256"
        },
        {
          "indexed": false,
          "internalType": "uint256",
          "name": "amount",
          "type": "uint256"
        },
        {
          "indexed": false,
          "internalType": "uint256",
          "name": "lockPeriod",
          "type": "uint256"
        },
        {
          "indexed": false,
          "internalType": "uint256",
          "name": "timestamp",
          "type": "uint256"
        }
      ],
      "name": "PositionCreated",
      "type": "event"
    },
    {
      "anonymous": false,
      "inputs": [
        {
          "indexed": true,
          "internalType": "address",
          "name": "user",
          "type": "address"
        },
        {
          "indexed": true,
          "internalType": "uint256",
          "name": "positionId",
          "type": "uint256"
        },
        {
          "indexed": false,
          "internalType": "uint256",
          "name": "amount",
          "type": "uint256"
        },
        {
          "indexed": false,
          "internalType": "uint256",
          "name": "timestamp",
          "type": "uint256"
        }
      ],
      "name": "PositionUnstaked",
      "type": "event"
    },
    {
      "anonymous": false,
      "inputs": [
        {
          "indexed": true,
          "internalType": "address",
          "name": "sender",
          "type": "address"
        },
        {
          "indexed": false,
          "internalType": "uint256",
          "name": "amount",
          "type": "uint256"
        }
      ],
      "name": "Received",
      "type": "event"
    },
    {
      "anonymous": false,
      "inputs": [
        {
          "indexed": true,
          "internalType": "address",
          "name": "user",
          "type": "address"
        },
        {
          "indexed": true,
          "internalType": "uint256",
          "name": "positionId",
          "type": "uint256"
        },
        {
          "indexed": false,
          "internalType": "uint256",
          "name": "amount",
          "type": "uint256"
        },
        {
          "indexed": false,
          "internalType": "uint256",
          "name": "timestamp",
          "type": "uint256"
        }
      ],
      "name": "RewardClaimed",
      "type": "event"
    },
    {
      "anonymous": false,
      "inputs": [
        {
          "indexed": false,
          "internalType": "uint256",
          "name": "oldEndTime",
          "type": "uint256"
        },
        {
          "indexed": false,
          "internalType": "uint256",
          "name": "newEndTime",
          "type": "uint256"
        }
      ],
      "name": "StakeEndTimeUpdated",
      "type": "event"
    },
    {
      "anonymous": false,
      "inputs": [
        {
          "indexed": true,
          "internalType": "address",
          "name": "operator",
          "type": "address"
        },
        {
          "indexed": false,
          "internalType": "uint256",
          "name": "timestamp",
          "type": "uint256"
        }
      ],
      "name": "StakingPaused",
      "type": "event"
    },
    {
      "anonymous": false,
      "inputs": [
        {
          "indexed": true,
          "internalType": "address",
          "name": "operator",
          "type": "address"
        },
        {
          "indexed": false,
          "internalType": "uint256",
          "name": "timestamp",
          "type": "uint256"
        }
      ],
      "name": "StakingUnpaused",
      "type": "event"
    },
    {
      "anonymous": false,
      "inputs": [
        {
          "indexed": false,
          "internalType": "address",
          "name": "account",
          "type": "address"
        }
      ],
      "name": "Unpaused",
      "type": "event"
    },
    {
      "anonymous": false,
      "inputs": [
        {
          "indexed": true,
          "internalType": "address",
          "name": "implementation",
          "type": "address"
        }
      ],
      "name": "Upgraded",
      "type": "event"
    },
    {
      "anonymous": false,
      "inputs": [
        {
          "indexed": false,
          "internalType": "uint256",
          "name": "oldRate",
          "type": "uint256"
        },
        {
          "indexed": false,
          "internalType": "uint256",
          "name": "newRate",
          "type": "uint256"
        }
      ],
      "name": "WhitelistBonusRateUpdated",
      "type": "event"
    },
    {
      "anonymous": false,
      "inputs": [
        {
          "indexed": true,
          "internalType": "address",
          "name": "user",
          "type": "address"
        },
        {
          "indexed": false,
          "internalType": "bool",
          "name": "status",
          "type": "bool"
        }
      ],
      "name": "WhitelistStatusChanged",
      "type": "event"
    },
    {
      "inputs": [],
      "name": "UPGRADE_INTERFACE_VERSION",
      "outputs": [
        {
          "internalType": "string",
          "name": "",
          "type": "string"
        }
      ],
      "stateMutability": "view",
      "type": "function"
    },
    {
      "inputs": [
        {
          "internalType": "uint256",
          "name": "period",
          "type": "uint256"
        },
        {
          "internalType": "uint256",
          "name": "rewardRate",
          "type": "uint256"
        }
      ],
      "name": "addLockOption",
      "outputs": [],
      "stateMutability": "nonpayable",
      "type": "function"
    },
    {
      "inputs": [
        {
          "internalType": "address",
          "name": "user",
          "type": "address"
        }
      ],
      "name": "addToBlacklist",
      "outputs": [],
      "stateMutability": "nonpayable",
      "type": "function"
    },
    {
      "inputs": [
        {
          "internalType": "address",
          "name": "user",
          "type": "address"
        }
      ],
      "name": "addToWhitelist",
      "outputs": [],
      "stateMutability": "nonpayable",
      "type": "function"
    },
    {
      "inputs": [],
      "name": "admin",
      "outputs": [
        {
          "internalType": "address",
          "name": "",
          "type": "address"
        }
      ],
      "stateMutability": "view",
      "type": "function"
    },
    {
      "inputs": [
        {
          "internalType": "address",
          "name": "",
          "type": "address"
        }
      ],
      "name": "blacklisted",
      "outputs": [
        {
          "internalType": "bool",
          "name": "",
          "type": "bool"
        }
      ],
      "stateMutability": "view",
      "type": "function"
    },
    {
      "inputs": [
        {
          "internalType": "uint256",
          "name": "positionId",
          "type": "uint256"
        }
      ],
      "name": "claimReward",
      "outputs": [
        {
          "internalType": "uint256",
          "name": "",
          "type": "uint256"
        }
      ],
      "stateMutability": "nonpayable",
      "type": "function"
    },
    {
      "inputs": [],
      "name": "emergencyMode",
      "outputs": [
        {
          "internalType": "bool",
          "name": "",
          "type": "bool"
        }
      ],
      "stateMutability": "view",
      "type": "function"
    },
    {
      "inputs": [
        {
          "internalType": "uint256",
          "name": "positionId",
          "type": "uint256"
        }
      ],
      "name": "emergencyWithdraw",
      "outputs": [],
      "stateMutability": "nonpayable",
      "type": "function"
    },
    {
      "inputs": [],
      "name": "enableEmergencyMode",
      "outputs": [],
      "stateMutability": "nonpayable",
      "type": "function"
    },
    {
      "inputs": [],
      "name": "getLockOptions",
      "outputs": [
        {
          "components": [
            {
              "internalType": "uint256",
              "name": "period",
              "type": "uint256"
            },
            {
              "internalType": "uint256",
              "name": "rewardRate",
              "type": "uint256"
            }
          ],
          "internalType": "struct IStaking.LockOption[]",
          "name": "",
          "type": "tuple[]"
        }
      ],
      "stateMutability": "view",
      "type": "function"
    },
    {
      "inputs": [
        {
          "internalType": "uint256",
          "name": "lockPeriod",
          "type": "uint256"
        }
      ],
      "name": "getRewardRate",
      "outputs": [
        {
          "internalType": "uint256",
          "name": "",
          "type": "uint256"
        }
      ],
      "stateMutability": "view",
      "type": "function"
    },
    {
      "inputs": [],
      "name": "getStakingProgress",
      "outputs": [
        {
          "internalType": "uint256",
          "name": "total",
          "type": "uint256"
        },
        {
          "internalType": "uint256",
          "name": "current",
          "type": "uint256"
        },
        {
          "internalType": "uint256",
          "name": "remaining",
          "type": "uint256"
        },
        {
          "internalType": "uint256",
          "name": "progressPercentage",
          "type": "uint256"
        }
      ],
      "stateMutability": "view",
      "type": "function"
    },
    {
      "inputs": [],
      "name": "getTotalStaked",
      "outputs": [
        {
          "internalType": "uint256",
          "name": "",
          "type": "uint256"
        }
      ],
      "stateMutability": "view",
      "type": "function"
    },
    {
      "inputs": [
        {
          "internalType": "address",
          "name": "user",
          "type": "address"
        }
      ],
      "name": "getUserPositionCount",
      "outputs": [
        {
          "internalType": "uint256",
          "name": "",
          "type": "uint256"
        }
      ],
      "stateMutability": "view",
      "type": "function"
    },
    {
      "inputs": [
        {
          "internalType": "address",
          "name": "user",
          "type": "address"
        }
      ],
      "name": "getUserPositions",
      "outputs": [
        {
          "components": [
            {
              "internalType": "uint256",
              "name": "positionId",
              "type": "uint256"
            },
            {
              "internalType": "uint256",
              "name": "amount",
              "type": "uint256"
            },
            {
              "internalType": "uint256",
              "name": "lockPeriod",
              "type": "uint256"
            },
            {
              "internalType": "uint256",
              "name": "stakedAt",
              "type": "uint256"
            },
            {
              "internalType": "uint256",
              "name": "lastRewardAt",
              "type": "uint256"
            },
            {
              "internalType": "bool",
              "name": "isUnstaked",
              "type": "bool"
            }
          ],
          "internalType": "struct IStaking.Position[]",
          "name": "",
          "type": "tuple[]"
        }
      ],
      "stateMutability": "view",
      "type": "function"
    },
    {
      "inputs": [],
      "name": "initialize",
      "outputs": [],
      "stateMutability": "nonpayable",
      "type": "function"
    },
    {
      "inputs": [
        {
          "internalType": "uint256",
          "name": "",
          "type": "uint256"
        }
      ],
      "name": "lockOptions",
      "outputs": [
        {
          "internalType": "uint256",
          "name": "period",
          "type": "uint256"
        },
        {
          "internalType": "uint256",
          "name": "rewardRate",
          "type": "uint256"
        }
      ],
      "stateMutability": "view",
      "type": "function"
    },
    {
      "inputs": [],
      "name": "maxTotalStake",
      "outputs": [
        {
          "internalType": "uint256",
          "name": "",
          "type": "uint256"
        }
      ],
      "stateMutability": "view",
      "type": "function"
    },
    {
      "inputs": [],
      "name": "minStakeAmount",
      "outputs": [
        {
          "internalType": "uint256",
          "name": "",
          "type": "uint256"
        }
      ],
      "stateMutability": "view",
      "type": "function"
    },
    {
      "inputs": [],
      "name": "nextPositionId",
      "outputs": [
        {
          "internalType": "uint256",
          "name": "",
          "type": "uint256"
        }
      ],
      "stateMutability": "view",
      "type": "function"
    },
    {
      "inputs": [],
      "name": "onlyWhitelistCanStake",
      "outputs": [
        {
          "internalType": "bool",
          "name": "",
          "type": "bool"
        }
      ],
      "stateMutability": "view",
      "type": "function"
    },
    {
      "inputs": [],
      "name": "owner",
      "outputs": [
        {
          "internalType": "address",
          "name": "",
          "type": "address"
        }
      ],
      "stateMutability": "view",
      "type": "function"
    },
    {
      "inputs": [],
      "name": "pause",
      "outputs": [],
      "stateMutability": "nonpayable",
      "type": "function"
    },
    {
      "inputs": [],
      "name": "paused",
      "outputs": [
        {
          "internalType": "bool",
          "name": "",
          "type": "bool"
        }
      ],
      "stateMutability": "view",
      "type": "function"
    },
    {
      "inputs": [],
      "name": "pendingAdmin",
      "outputs": [
        {
          "internalType": "address",
          "name": "",
          "type": "address"
        }
      ],
      "stateMutability": "view",
      "type": "function"
    },
    {
      "inputs": [
        {
          "internalType": "uint256",
          "name": "positionId",
          "type": "uint256"
        }
      ],
      "name": "pendingReward",
      "outputs": [
        {
          "internalType": "uint256",
          "name": "",
          "type": "uint256"
        }
      ],
      "stateMutability": "view",
      "type": "function"
    },
    {
      "inputs": [
        {
          "internalType": "uint256",
          "name": "",
          "type": "uint256"
        }
      ],
      "name": "positionOwner",
      "outputs": [
        {
          "internalType": "address",
          "name": "",
          "type": "address"
        }
      ],
      "stateMutability": "view",
      "type": "function"
    },
    {
      "inputs": [],
      "name": "proxiableUUID",
      "outputs": [
        {
          "internalType": "bytes32",
          "name": "",
          "type": "bytes32"
        }
      ],
      "stateMutability": "view",
      "type": "function"
    },
    {
      "inputs": [],
      "name": "remainingStakeCapacity",
      "outputs": [
        {
          "internalType": "uint256",
          "name": "",
          "type": "uint256"
        }
      ],
      "stateMutability": "view",
      "type": "function"
    },
    {
      "inputs": [
        {
          "internalType": "address",
          "name": "user",
          "type": "address"
        }
      ],
      "name": "removeFromBlacklist",
      "outputs": [],
      "stateMutability": "nonpayable",
      "type": "function"
    },
    {
      "inputs": [
        {
          "internalType": "address",
          "name": "user",
          "type": "address"
        }
      ],
      "name": "removeFromWhitelist",
      "outputs": [],
      "stateMutability": "nonpayable",
      "type": "function"
    },
    {
      "inputs": [],
      "name": "renounceOwnership",
      "outputs": [],
      "stateMutability": "nonpayable",
      "type": "function"
    },
    {
      "inputs": [],
      "name": "rewardReserve",
      "outputs": [
        {
          "internalType": "uint256",
          "name": "",
          "type": "uint256"
        }
      ],
      "stateMutability": "view",
      "type": "function"
    },
    {
      "inputs": [
        {
          "internalType": "uint256",
          "name": "newLimit",
          "type": "uint256"
        }
      ],
      "name": "setMaxTotalStake",
      "outputs": [],
      "stateMutability": "nonpayable",
      "type": "function"
    },
    {
      "inputs": [
        {
          "internalType": "uint256",
          "name": "newAmount",
          "type": "uint256"
        }
      ],
      "name": "setMinStakeAmount",
      "outputs": [],
      "stateMutability": "nonpayable",
      "type": "function"
    },
    {
      "inputs": [
        {
          "internalType": "uint256",
          "name": "newEndTime",
          "type": "uint256"
        }
      ],
      "name": "setStakeEndTime",
      "outputs": [],
      "stateMutability": "nonpayable",
      "type": "function"
    },
    {
      "inputs": [
        {
          "internalType": "uint256",
          "name": "newRate",
          "type": "uint256"
        }
      ],
      "name": "setWhitelistBonusRate",
      "outputs": [],
      "stateMutability": "nonpayable",
      "type": "function"
    },
    {
      "inputs": [
        {
          "internalType": "uint256",
          "name": "lockPeriod",
          "type": "uint256"
        }
      ],
      "name": "stake",
      "outputs": [
        {
          "internalType": "uint256",
          "name": "",
          "type": "uint256"
        }
      ],
      "stateMutability": "payable",
      "type": "function"
    },
    {
      "inputs": [],
      "name": "stakeEndTime",
      "outputs": [
        {
          "internalType": "uint256",
          "name": "",
          "type": "uint256"
        }
      ],
      "stateMutability": "view",
      "type": "function"
    },
    {
      "inputs": [],
      "name": "totalStaked",
      "outputs": [
        {
          "internalType": "uint256",
          "name": "",
          "type": "uint256"
        }
      ],
      "stateMutability": "view",
      "type": "function"
    },
    {
      "inputs": [
        {
          "internalType": "address",
          "name": "newOwner",
          "type": "address"
        }
      ],
      "name": "transferOwnership",
      "outputs": [],
      "stateMutability": "nonpayable",
      "type": "function"
    },
    {
      "inputs": [],
      "name": "unpause",
      "outputs": [],
      "stateMutability": "nonpayable",
      "type": "function"
    },
    {
      "inputs": [
        {
          "internalType": "uint256",
          "name": "positionId",
          "type": "uint256"
        }
      ],
      "name": "unstake",
      "outputs": [],
      "stateMutability": "nonpayable",
      "type": "function"
    },
    {
      "inputs": [
        {
          "internalType": "uint256",
          "name": "index",
          "type": "uint256"
        },
        {
          "internalType": "uint256",
          "name": "newPeriod",
          "type": "uint256"
        },
        {
          "internalType": "uint256",
          "name": "newRate",
          "type": "uint256"
        }
      ],
      "name": "updateLockOption",
      "outputs": [],
      "stateMutability": "nonpayable",
      "type": "function"
    },
    {
      "inputs": [
        {
          "internalType": "address",
          "name": "newImplementation",
          "type": "address"
        },
        {
          "internalType": "bytes",
          "name": "data",
          "type": "bytes"
        }
      ],
      "name": "upgradeToAndCall",
      "outputs": [],
      "stateMutability": "payable",
      "type": "function"
    },
    {
      "inputs": [
        {
          "internalType": "address",
          "name": "",
          "type": "address"
        }
      ],
      "name": "userPositionCount",
      "outputs": [
        {
          "internalType": "uint256",
          "name": "",
          "type": "uint256"
        }
      ],
      "stateMutability": "view",
      "type": "function"
    },
    {
      "inputs": [
        {
          "internalType": "address",
          "name": "",
          "type": "address"
        },
        {
          "internalType": "uint256",
          "name": "",
          "type": "uint256"
        }
      ],
      "name": "userPositions",
      "outputs": [
        {
          "internalType": "uint256",
          "name": "positionId",
          "type": "uint256"
        },
        {
          "internalType": "uint256",
          "name": "amount",
          "type": "uint256"
        },
        {
          "internalType": "uint256",
          "name": "lockPeriod",
          "type": "uint256"
        },
        {
          "internalType": "uint256",
          "name": "stakedAt",
          "type": "uint256"
        },
        {
          "internalType": "uint256",
          "name": "lastRewardAt",
          "type": "uint256"
        },
        {
          "internalType": "bool",
          "name": "isUnstaked",
          "type": "bool"
        }
      ],
      "stateMutability": "view",
      "type": "function"
    },
    {
      "inputs": [
        {
          "internalType": "address",
          "name": "",
          "type": "address"
        }
      ],
      "name": "userTotalStaked",
      "outputs": [
        {
          "internalType": "uint256",
          "name": "",
          "type": "uint256"
        }
      ],
      "stateMutability": "view",
      "type": "function"
    },
    {
      "inputs": [],
      "name": "version",
      "outputs": [
        {
          "internalType": "string",
          "name": "",
          "type": "string"
        }
      ],
      "stateMutability": "pure",
      "type": "function"
    },
    {
      "inputs": [],
      "name": "whitelistBonusRate",
      "outputs": [
        {
          "internalType": "uint256",
          "name": "",
          "type": "uint256"
        }
      ],
      "stateMutability": "view",
      "type": "function"
    },
    {
      "inputs": [
        {
          "internalType": "address",
          "name": "",
          "type": "address"
        }
      ],
      "name": "whitelisted",
      "outputs": [
        {
          "internalType": "bool",
          "name": "",
          "type": "bool"
        }
      ],
      "stateMutability": "view",
      "type": "function"
    },
    {
      "stateMutability": "payable",
      "type": "receive"
    }
  ],
  "bytecode": "0x60a06040523060805234801561001457600080fd5b5061001d610022565b6100d4565b7ff0c57e16840df040f15088dc2f81fe391c3923bec73e23a9662efc9c229c6a00805468010000000000000000900460ff16156100725760405163f92ee8a960e01b815260040160405180910390fd5b80546001600160401b03908116146100d15780546001600160401b0319166001600160401b0390811782556040519081527fc7f505b2f371ae2175ee4913f4499e1f2633a7b5936321eed1cdaeb6115181d29060200160405180910390a15b50565b6080516135506100fd60003960008181612785015281816127ae015261291701526135506000f3fe6080604052600436106103035760003560e01c8063719de1ef11610190578063b0f6b8f1116100dc578063e43252d711610095578063f2fde38b1161006f578063f2fde38b146109e1578063f76314e914610a01578063f851a44014610a1b578063fafcca8c14610a3b57600080fd5b8063e43252d71461098b578063eb4af045146109ab578063f1887684146109cb57600080fd5b8063b0f6b8f1146108b5578063b3060d36146108ca578063c5b1c7d014610900578063cab64bcd14610915578063d936547e1461092b578063dbac26e91461095b57600080fd5b80638ab1d68111610149578063a694fc3a11610123578063a694fc3a1461081c578063a7d9131f1461082f578063ad3cb1cc14610864578063ae169a501461089557600080fd5b80638ab1d6811461079f5780638da5cb5b146107bf578063a6513562146107fc57600080fd5b8063719de1ef146106fc578063747cfc3a146107295780638129fc1c14610749578063817b1cd21461075e5780638456cb5914610774578063899346c71461078957600080fd5b80633f4ba83a1161024f57806354fd4d50116102085780635ea6bbfd116101e25780635ea6bbfd1461069957806364904071146106bb57806368db96a6146106d1578063715018a6146106e757600080fd5b806354fd4d50146105ee5780635c975abb146106255780635e1b4d991461064a57600080fd5b80633f4ba83a1461055157806344337ea1146105665780634f1ef2861461058657806352d1902d146105995780635312ea8e146105ae578063537df3b6146105ce57600080fd5b806312f7086c116102bc5780632a6bc2dd116102965780632a6bc2dd146104ae5780632c28d369146104db5780632e17de78146104fb57806331e8a7ef1461051b57600080fd5b806312f7086c146104365780631ee2a99f14610456578063267822471461047657600080fd5b806306015e6514610344578063081b82d1146103665780630905f560146103865780630917e776146103b55780630918eb14146103d45780630b20e7d11461040157600080fd5b3661033f5760405134815233907f88a5966d370b9919b20f3e2c13ff65706f196a4e32cc2c12bf57088f885258749060200160405180910390a2005b600080fd5b34801561035057600080fd5b5061036461035f366004612f82565b610a51565b005b34801561037257600080fd5b50610364610381366004612f9b565b610b19565b34801561039257600080fd5b506036546103a09060ff1681565b60405190151581526020015b60405180910390f35b3480156103c157600080fd5b506031545b6040519081526020016103ac565b3480156103e057600080fd5b506103c66103ef366004612fde565b60356020526000908152604090205481565b34801561040d57600080fd5b50610416610c99565b6040805194855260208501939093529183015260608201526080016103ac565b34801561044257600080fd5b506103c6610451366004612f82565b610ce3565b34801561046257600080fd5b50610364610471366004612ff9565b610f02565b34801561048257600080fd5b50603954610496906001600160a01b031681565b6040516001600160a01b0390911681526020016103ac565b3480156104ba57600080fd5b506104ce6104c9366004612fde565b6110fa565b6040516103ac919061301b565b3480156104e757600080fd5b506103646104f6366004612f82565b6111aa565b34801561050757600080fd5b50610364610516366004612f82565b61125b565b34801561052757600080fd5b506103c6610536366004612fde565b6001600160a01b031660009081526035602052604090205490565b34801561055d57600080fd5b506103646115e7565b34801561057257600080fd5b50610364610581366004612fde565b611652565b6103646105943660046130b0565b6116a1565b3480156105a557600080fd5b506103c66116c0565b3480156105ba57600080fd5b506103646105c9366004612f82565b6116dd565b3480156105da57600080fd5b506103646105e9366004612fde565b611a24565b3480156105fa57600080fd5b506040805180820190915260058152640312e302e360dc1b60208201525b6040516103ac91906131ca565b34801561063157600080fd5b506000805160206134db8339815191525460ff166103a0565b34801561065657600080fd5b5061066a6106653660046131dd565b611a70565b6040805196875260208701959095529385019290925260608401526080830152151560a082015260c0016103ac565b3480156106a557600080fd5b506106ae611ac7565b6040516103ac9190613207565b3480156106c757600080fd5b506103c6603f5481565b3480156106dd57600080fd5b506103c6603e5481565b3480156106f357600080fd5b50610364611b3a565b34801561070857600080fd5b506103c6610717366004612fde565b603b6020526000908152604090205481565b34801561073557600080fd5b50610364610744366004612f82565b611b4e565b34801561075557600080fd5b50610364611c04565b34801561076a57600080fd5b506103c660315481565b34801561078057600080fd5b50610364611d47565b34801561079557600080fd5b506103c660325481565b3480156107ab57600080fd5b506103646107ba366004612fde565b611dac565b3480156107cb57600080fd5b507f9016d09d72d40fdae2fd8ceac6b6234c7706214fd39c1cd1e609a0528c199300546001600160a01b0316610496565b34801561080857600080fd5b506103c6610817366004612f82565b611e2d565b6103c661082a366004612f82565b611eb1565b34801561083b57600080fd5b5061084f61084a366004612f82565b6121d5565b604080519283526020830191909152016103ac565b34801561087057600080fd5b50610618604051806040016040528060058152602001640352e302e360dc1b81525081565b3480156108a157600080fd5b506103c66108b0366004612f82565b612203565b3480156108c157600080fd5b506103c66123e1565b3480156108d657600080fd5b506104966108e5366004612f82565b6037602052600090815260409020546001600160a01b031681565b34801561090c57600080fd5b50610364612409565b34801561092157600080fd5b506103c6603a5481565b34801561093757600080fd5b506103a0610946366004612fde565b603d6020526000908152604090205460ff1681565b34801561096757600080fd5b506103a0610976366004612fde565b603c6020526000908152604090205460ff1681565b34801561099757600080fd5b506103646109a6366004612fde565b612443565b3480156109b757600080fd5b506103646109c6366004612f82565b6124c5565b3480156109d757600080fd5b506103c660305481565b3480156109ed57600080fd5b506103646109fc366004612fde565b6124f5565b348015610a0d57600080fd5b506041546103a09060ff1681565b348015610a2757600080fd5b50603854610496906001600160a01b031681565b348015610a4757600080fd5b506103c660405481565b6038546001600160a01b03163314610a7c57604051634755657960e01b815260040160405180910390fd5b603154811015610ad35760405162461bcd60e51b815260206004820152601d60248201527f4e6577206c696d69742062656c6f772063757272656e74207374616b6500000060448201526064015b60405180910390fd5b603f80549082905560408051828152602081018490527f0573f641e402aac2bf5c32729e7af1f5ec12cc2a589e111f726960e09fd42a0791015b60405180910390a15050565b6038546001600160a01b03163314610b4457604051634755657960e01b815260040160405180910390fd5b6033548310610b855760405162461bcd60e51b815260206004820152600d60248201526c092dcecc2d8d2c840d2dcc8caf609b1b6044820152606401610aca565b60405163c29d0dcf60e01b8152600481018390526024810182905273__$365e043523541e2f11562b1dc3913f13bd$__9063c29d0dcf90604401602060405180830381865af4158015610bdc573d6000803e3d6000fd5b505050506040513d601f19601f82011682018060405250810190610c00919061324b565b610c425760405162461bcd60e51b815260206004820152601360248201527224b73b30b634b2103637b1b59037b83a34b7b760691b6044820152606401610aca565b8160338481548110610c5657610c5661326d565b9060005260206000209060020201600001819055508060338481548110610c7f57610c7f61326d565b906000526020600020906002020160010181905550505050565b603f5460315460008083831015610cbf57603154603f54610cba9190613299565b610cc2565b60005b915083610cd1846127106132ac565b610cdb91906132c3565b905090919293565b33600090815260346020908152604080832080548251818502810185019093528083528493849084015b82821015610d7a5760008481526020908190206040805160c08101825260068602909201805483526001808201548486015260028201549284019290925260038101546060840152600481015460808401526005015460ff16151560a08301529083529092019101610d0d565b50505050905060005b8151811015610ef8576000828281518110610da057610da061326d565b60200260200101519050848160000151148015610dbf57508060a00151155b15610eef576000816080015142610dd69190613299565b9050600073__$365e043523541e2f11562b1dc3913f13bd$__6301629341846040015160336040518363ffffffff1660e01b8152600401610e189291906132e5565b602060405180830381865af4158015610e35573d6000803e3d6000fd5b505050506040513d601f19601f82011682018060405250810190610e599190613344565b602084015160405163a8e62b9760e01b81526004810191909152602481018490526044810182905290915073__$365e043523541e2f11562b1dc3913f13bd$__9063a8e62b9790606401602060405180830381865af4158015610ec0573d6000803e3d6000fd5b505050506040513d601f19601f82011682018060405250810190610ee49190613344565b979650505050505050565b50600101610d83565b5060009392505050565b6038546001600160a01b03163314610f2d57604051634755657960e01b815260040160405180910390fd5b60405163c29d0dcf60e01b8152600481018390526024810182905273__$365e043523541e2f11562b1dc3913f13bd$__9063c29d0dcf90604401602060405180830381865af4158015610f84573d6000803e3d6000fd5b505050506040513d601f19601f82011682018060405250810190610fa8919061324b565b610fea5760405162461bcd60e51b815260206004820152601360248201527224b73b30b634b2103637b1b59037b83a34b7b760691b6044820152606401610aca565b60005b60335481101561104357826033828154811061100b5761100b61326d565b9060005260206000209060020201600001540361103b576040516302e8f35960e31b815260040160405180910390fd5b600101610fed565b5060408051808201825283815260208082018481526033805460018101825560009190915292517f82a75bdeeae8604d839476ae9efd8b0e15aa447e21bfd7f41283bb54e22c9a82600290940293840155517f82a75bdeeae8604d839476ae9efd8b0e15aa447e21bfd7f41283bb54e22c9a8390920191909155815184815290810183905242918101919091527f2a7d636d9d2351ed68dd8c5eccf08e842b6f81cc70ba2c5d65ec4b6ab47ff77f90606001610b0d565b6001600160a01b0381166000908152603460209081526040808320805482518185028101850190935280835260609492939192909184015b8282101561119f5760008481526020908190206040805160c08101825260068602909201805483526001808201548486015260028201549284019290925260038101546060840152600481015460808401526005015460ff16151560a08301529083529092019101611132565b505050509050919050565b6038546001600160a01b031633146111d557604051634755657960e01b815260040160405180910390fd5b61138881111561121d5760405162461bcd60e51b8152602060048201526013602482015272084dedceae640e4c2e8ca40e8dede40d0d2ced606b1b6044820152606401610aca565b603e80549082905560408051828152602081018490527f245efa5f95442f5dd652d0e5f92d14a65257a76a7351a09087394c1d2950ef919101610b0d565b611263612530565b60008181526037602052604090205481906001600160a01b0316331461129c57604051636ec9be1160e01b815260040160405180910390fd5b336000908152603460205260408120908080805b845481101561131957868582815481106112cc576112cc61326d565b90600052602060002090600602016000015403611311578481815481106112f5576112f561326d565b9060005260206000209060060201935080925060019150611319565b6001016112b0565b508061133857604051636ec9be1160e01b815260040160405180910390fd5b83828154811061134a5761134a61326d565b60009182526020909120600690910201600581015490935060ff161561138357604051636ec9be1160e01b815260040160405180910390fd5b82600201548360030154611397919061335d565b4210156113b757604051636100d92960e11b815260040160405180910390fd5b60006113c33384612568565b60018086015460058701805460ff1916909217909155336000908152603b6020526040812080549394509192839291906113fe908490613299565b9250508190555080603160008282546114179190613299565b909155505081156114f157604051600090339084908381818185875af1925050503d8060008114611464576040519150601f19603f3d011682016040523d82523d6000602084013e611469565b606091505b50509050806114b35760405162461bcd60e51b815260206004820152601660248201527514995dd85c99081d1c985b9cd9995c8819985a5b195960521b6044820152606401610aca565b604080518481524260208201528a9133917f812be816db82c66cd18ca8457005cd84689642d8ac4d38599cc6af444a2dc72a910160405180910390a3505b604051600090339083908381818185875af1925050503d8060008114611533576040519150601f19603f3d011682016040523d82523d6000602084013e611538565b606091505b50509050806115895760405162461bcd60e51b815260206004820152601760248201527f556e7374616b65207472616e73666572206661696c65640000000000000000006044820152606401610aca565b604080518381524260208201528a9133917f3ff5d92f4a9e211f1b90950ab368cb14f7755425cfbcb14ec546777e5da856bc910160405180910390a350505050505050506115e460016000805160206134fb83398151915255565b50565b6038546001600160a01b0316331461161257604051634755657960e01b815260040160405180910390fd5b61161a61271a565b60405142815233907f8cc793e6a5897cb74020ea799628f88bc1dcdc85917d87f1345f33fa881f754b906020015b60405180910390a2565b6038546001600160a01b0316331461167d57604051634755657960e01b815260040160405180910390fd5b6001600160a01b03166000908152603c60205260409020805460ff19166001179055565b6116a961277a565b6116b28261281f565b6116bc828261284a565b5050565b60006116ca61290c565b506000805160206134bb83398151915290565b6116e5612530565b60365460ff1661172f5760405162461bcd60e51b81526020600482015260156024820152744e6f7420696e20656d657267656e6379206d6f646560581b6044820152606401610aca565b6000818152603760205260409020546001600160a01b0316331461178a5760405162461bcd60e51b81526020600482015260126024820152712737ba103837b9b4ba34b7b71037bbb732b960711b6044820152606401610aca565b336000908152603460205260408120908080805b845481101561183a57858582815481106117ba576117ba61326d565b9060005260206000209060060201600001541480156117ff57508481815481106117e6576117e661326d565b600091825260209091206005600690920201015460ff16155b15611832578481815481106118165761181661326d565b906000526020600020906006020193508092506001915061183a565b60010161179e565b50806118975760405162461bcd60e51b815260206004820152602660248201527f506f736974696f6e206e6f7420666f756e64206f7220616c726561647920756e6044820152651cdd185ad95960d21b6064820152608401610aca565b60008483815481106118ab576118ab61326d565b906000526020600020906006020160010154905060018584815481106118d3576118d361326d565b60009182526020808320600692909202909101600501805460ff191693151593909317909255338152603b909152604081208054839290611915908490613299565b92505081905550806031600082825461192e9190613299565b9091555050604051600090339083908381818185875af1925050503d8060008114611975576040519150601f19603f3d011682016040523d82523d6000602084013e61197a565b606091505b50509050806119cb5760405162461bcd60e51b815260206004820152601960248201527f456d657267656e6379207769746864726177206661696c6564000000000000006044820152606401610aca565b60408051838152426020820152889133917f45df01186fed55abc3ac9cfa82408e10553b9b93a8f0c0b4c2965a7bedb267ec910160405180910390a35050505050506115e460016000805160206134fb83398151915255565b6038546001600160a01b03163314611a4f57604051634755657960e01b815260040160405180910390fd5b6001600160a01b03166000908152603c60205260409020805460ff19169055565b60346020528160005260406000208181548110611a8c57600080fd5b600091825260209091206006909102018054600182015460028301546003840154600485015460059095015493965091945092909160ff1686565b60606033805480602002602001604051908101604052809291908181526020016000905b82821015611b3157838290600052602060002090600202016040518060400160405290816000820154815260200160018201548152505081526020019060010190611aeb565b50505050905090565b611b42612955565b611b4c60006129b0565b565b6038546001600160a01b03163314611b7957604051634755657960e01b815260040160405180910390fd5b428111611bc85760405162461bcd60e51b815260206004820152601a60248201527f456e642074696d65206d75737420626520696e206675747572650000000000006044820152606401610aca565b6040805482825581518181526020810184905290917eb0b5d614202bbc0e0b82f7fc4b4d1463f5a6603fb779ad54a14990640477079101610b0d565b7ff0c57e16840df040f15088dc2f81fe391c3923bec73e23a9662efc9c229c6a008054600160401b810460ff16159067ffffffffffffffff16600081158015611c4a5750825b905060008267ffffffffffffffff166001148015611c675750303b155b905081158015611c75575080155b15611c935760405163f92ee8a960e01b815260040160405180910390fd5b845467ffffffffffffffff191660011785558315611cbd57845460ff60401b1916600160401b1785555b611cc5612a21565b611ccd612a31565b611cd633612a41565b611cde612a52565b611ce733612a5a565b6000196040556041805460ff191660011790558315611d4057845460ff60401b19168555604051600181527fc7f505b2f371ae2175ee4913f4499e1f2633a7b5936321eed1cdaeb6115181d29060200160405180910390a15b5050505050565b6038546001600160a01b03163314611d7257604051634755657960e01b815260040160405180910390fd5b611d7a612c17565b60405142815233907f256910c06b67f0167a9e42db4b9d766ac2eb6c2151ca5bfee80937cdb293d78a90602001611648565b6038546001600160a01b03163314611dd757604051634755657960e01b815260040160405180910390fd5b6001600160a01b0381166000818152603d60209081526040808320805460ff19169055519182527f8daaf060c3306c38e068a75c054bf96ecd85a3db1252712c4d93632744c42e0d91015b60405180910390a250565b604051630162934160e01b815260009073__$365e043523541e2f11562b1dc3913f13bd$__90630162934190611e6a9085906033906004016132e5565b602060405180830381865af4158015611e87573d6000803e3d6000fd5b505050506040513d601f19601f82011682018060405250810190611eab9190613344565b92915050565b6000611ebb612530565b611ec3612c60565b336000908152603c602052604090205460ff1615611ef4576040516309550c7760e01b815260040160405180910390fd5b611f236040518060400160405280600d81526020016c21bab93932b73a103a34b6b29d60991b81525042612c91565b611f566040518060400160405280600f81526020016e29ba30b5b29032b732103a34b6b29d60891b815250604054612c91565b6040544210611fa75760405162461bcd60e51b815260206004820152601860248201527f5374616b696e6720706572696f642068617320656e64656400000000000000006044820152606401610aca565b60305460405163169b8a1960e21b81523460048201819052602482019290925273__$365e043523541e2f11562b1dc3913f13bd$__90635a6e286490604401602060405180830381865af4158015612003573d6000803e3d6000fd5b505050506040513d601f19601f820116820180604052508101906120279190613344565b9050603f548160315461203a919061335d565b1115612059576040516302a21e4360e11b815260040160405180910390fd5b603280546000918261206a83613370565b909155506040805160c0810182528281526020808201868152828401898152426060850181815260808601918252600060a0870181815233808352603488528983208054600180820183559185528985208b51600690920201908155975190880155945160028701559151600386015591516004850155516005909301805460ff19169315159390931790925581526035909152918220805493945090929161211283613370565b9091555050600082815260376020908152604080832080546001600160a01b031916339081179091558352603b9091528120805485929061215490849061335d565b92505081905550826031600082825461216d919061335d565b9091555050604080518481526020810187905242818301529051839133917f037a51f308bffa1811b7db6ec701b1d1ba493e6fa3cb1fcec4167f3ea1183db39181900360600190a3509150506121d060016000805160206134fb83398151915255565b919050565b603381815481106121e557600080fd5b60009182526020909120600290910201805460019091015490915082565b600061220d612530565b612215612c60565b60008281526037602052604090205482906001600160a01b0316331461224e57604051636ec9be1160e01b815260040160405180910390fd5b3360009081526034602052604081209080805b83548110156122a8578684828154811061227d5761227d61326d565b906000526020600020906006020160000154036122a057809250600191506122a8565b600101612261565b50806122c757604051636ec9be1160e01b815260040160405180910390fd5b60006122d33384612568565b9050806000036122f65760405163374c934360e11b815260040160405180910390fd5b604051600090339083908381818185875af1925050503d8060008114612338576040519150601f19603f3d011682016040523d82523d6000602084013e61233d565b606091505b50509050806123875760405162461bcd60e51b815260206004820152601660248201527514995dd85c99081d1c985b9cd9995c8819985a5b195960521b6044820152606401610aca565b60408051838152426020820152899133917f812be816db82c66cd18ca8457005cd84689642d8ac4d38599cc6af444a2dc72a910160405180910390a3509450505050506121d060016000805160206134fb83398151915255565b6000603f54603154106123f45750600090565b603154603f546124049190613299565b905090565b6038546001600160a01b0316331461243457604051634755657960e01b815260040160405180910390fd5b6036805460ff19166001179055565b6038546001600160a01b0316331461246e57604051634755657960e01b815260040160405180910390fd5b6001600160a01b0381166000818152603d6020908152604091829020805460ff1916600190811790915591519182527f8daaf060c3306c38e068a75c054bf96ecd85a3db1252712c4d93632744c42e0d9101611e22565b6038546001600160a01b031633146124f057604051634755657960e01b815260040160405180910390fd5b603055565b6124fd612955565b6001600160a01b03811661252757604051631e4fbdf760e01b815260006004820152602401610aca565b6115e4816129b0565b6000805160206134fb83398151915280546001190161256257604051633ee5aeb560e01b815260040160405180910390fd5b60029055565b6001600160a01b03821660009081526034602052604081208054829190849081106125955761259561326d565b60009182526020909120600690910201600581015490915060ff16156125bf576000915050611eab565b60008160040154426125d19190613299565b9050806000036125e657600092505050611eab565b6002820154604051630162934160e01b815260009173__$365e043523541e2f11562b1dc3913f13bd$__91630162934191612626916033906004016132e5565b602060405180830381865af4158015612643573d6000803e3d6000fd5b505050506040513d601f19601f820116820180604052508101906126679190613344565b600184015460405163a8e62b9760e01b81526004810191909152602481018490526044810182905290915073__$365e043523541e2f11562b1dc3913f13bd$__9063a8e62b9790606401602060405180830381865af41580156126ce573d6000803e3d6000fd5b505050506040513d601f19601f820116820180604052508101906126f29190613344565b935042836004018190555050505092915050565b60016000805160206134fb83398151915255565b612722612cd6565b6000805160206134db833981519152805460ff191681557f5db9ee0a495bf2e6ff9c91a7834c1ba4fdd244a5e8aa4e537bd38aeae4b073aa335b6040516001600160a01b03909116815260200160405180910390a150565b306001600160a01b037f000000000000000000000000000000000000000000000000000000000000000016148061280157507f00000000000000000000000000000000000000000000000000000000000000006001600160a01b03166127f56000805160206134bb833981519152546001600160a01b031690565b6001600160a01b031614155b15611b4c5760405163703e46dd60e11b815260040160405180910390fd5b6038546001600160a01b031633146115e457604051634755657960e01b815260040160405180910390fd5b816001600160a01b03166352d1902d6040518163ffffffff1660e01b8152600401602060405180830381865afa9250505080156128a4575060408051601f3d908101601f191682019092526128a191810190613344565b60015b6128cc57604051634c9c8ce360e01b81526001600160a01b0383166004820152602401610aca565b6000805160206134bb83398151915281146128fd57604051632a87526960e21b815260048101829052602401610aca565b6129078383612d06565b505050565b306001600160a01b037f00000000000000000000000000000000000000000000000000000000000000001614611b4c5760405163703e46dd60e11b815260040160405180910390fd5b336129877f9016d09d72d40fdae2fd8ceac6b6234c7706214fd39c1cd1e609a0528c199300546001600160a01b031690565b6001600160a01b031614611b4c5760405163118cdaa760e01b8152336004820152602401610aca565b7f9016d09d72d40fdae2fd8ceac6b6234c7706214fd39c1cd1e609a0528c19930080546001600160a01b031981166001600160a01b03848116918217845560405192169182907f8be0079c531659141344cd1fd0a4f28419497f9722a3daafe3b4186f6b6457e090600090a3505050565b612a29612d5c565b611b4c612da5565b612a39612d5c565b611b4c612dad565b612a49612d5c565b6115e481612dce565b611b4c612d5c565b612a62612d5c565b6001600160a01b038116612ab85760405162461bcd60e51b815260206004820152601a60248201527f5374616b696e6753746f726167653a207a65726f2061646d696e0000000000006044820152606401610aca565b603880546001600160a01b0383166001600160a01b03199091161790556041805461ff001916610100179055612af06012600a613470565b612afb9060646132ac565b60305560016032819055604080518082018252603c815261138860208083019182526033805480870182556000828152945160029182027f82a75bdeeae8604d839476ae9efd8b0e15aa447e21bfd7f41283bb54e22c9a828181019290925594517f82a75bdeeae8604d839476ae9efd8b0e15aa447e21bfd7f41283bb54e22c9a83958601558651808801885262ed4e0081526102bc8186019081528454808b018655858952915191840280840192909255519086015586518088019097526301e1338087526105dc93870193845282549788018355919094529351949092029283019390935551910155612bf26012600a613470565b612bfe906127106132ac565b603f55506000196040556041805460ff19166001179055565b612c1f612c60565b6000805160206134db833981519152805460ff191660011781557f62e78cea01bee320cd4e420270b5ea74000d11b0c9f74754ebdbfc544b05a2583361275c565b6000805160206134db8339815191525460ff1615611b4c5760405163d93c066560e01b815260040160405180910390fd5b6116bc8282604051602401612ca792919061347c565b60408051601f198184030181529190526020810180516001600160e01b0316632d839cb360e21b179052612dd6565b6000805160206134db8339815191525460ff16611b4c57604051638dfc202b60e01b815260040160405180910390fd5b612d0f82612ddf565b6040516001600160a01b038316907fbc7cd75a20ee27fd9adebab32041f755214dbc6bffa90cc0225b39da2e5c2d3b90600090a2805115612d54576129078282612e44565b6116bc612eba565b7ff0c57e16840df040f15088dc2f81fe391c3923bec73e23a9662efc9c229c6a0054600160401b900460ff16611b4c57604051631afcd79f60e31b815260040160405180910390fd5b612706612d5c565b612db5612d5c565b6000805160206134db833981519152805460ff19169055565b6124fd612d5c565b6115e481612ed9565b806001600160a01b03163b600003612e1557604051634c9c8ce360e01b81526001600160a01b0382166004820152602401610aca565b6000805160206134bb83398151915280546001600160a01b0319166001600160a01b0392909216919091179055565b6060600080846001600160a01b031684604051612e61919061349e565b600060405180830381855af49150503d8060008114612e9c576040519150601f19603f3d011682016040523d82523d6000602084013e612ea1565b606091505b5091509150612eb1858383612efa565b95945050505050565b3415611b4c5760405163b398979f60e01b815260040160405180910390fd5b60006a636f6e736f6c652e6c6f679050600080835160208501845afa505050565b606082612f0f57612f0a82612f59565b612f52565b8151158015612f2657506001600160a01b0384163b155b15612f4f57604051639996b31560e01b81526001600160a01b0385166004820152602401610aca565b50805b9392505050565b805115612f695780518082602001fd5b60405163d6bda27560e01b815260040160405180910390fd5b600060208284031215612f9457600080fd5b5035919050565b600080600060608486031215612fb057600080fd5b505081359360208301359350604090920135919050565b80356001600160a01b03811681146121d057600080fd5b600060208284031215612ff057600080fd5b612f5282612fc7565b6000806040838503121561300c57600080fd5b50508035926020909101359150565b602080825282518282018190526000918401906040840190835b8181101561308f578351805184526020810151602085015260408101516040850152606081015160608501526080810151608085015260a0810151151560a08501525060c083019250602084019350600181019050613035565b509095945050505050565b634e487b7160e01b600052604160045260246000fd5b600080604083850312156130c357600080fd5b6130cc83612fc7565b9150602083013567ffffffffffffffff8111156130e857600080fd5b8301601f810185136130f957600080fd5b803567ffffffffffffffff8111156131135761311361309a565b604051601f8201601f19908116603f0116810167ffffffffffffffff811182821017156131425761314261309a565b60405281815282820160200187101561315a57600080fd5b816020840160208301376000602083830101528093505050509250929050565b60005b8381101561319557818101518382015260200161317d565b50506000910152565b600081518084526131b681602086016020860161317a565b601f01601f19169290920160200192915050565b602081526000612f52602083018461319e565b600080604083850312156131f057600080fd5b6131f983612fc7565b946020939093013593505050565b602080825282518282018190526000918401906040840190835b8181101561308f578351805184526020908101518185015290930192604090920191600101613221565b60006020828403121561325d57600080fd5b81518015158114612f5257600080fd5b634e487b7160e01b600052603260045260246000fd5b634e487b7160e01b600052601160045260246000fd5b81810381811115611eab57611eab613283565b8082028115828204841417611eab57611eab613283565b6000826132e057634e487b7160e01b600052601260045260246000fd5b500490565b60006040820184835260406020840152808454808352606085019150856000526020600020925060005b81811015613338578354835260018085015460208501526002909401936040909301920161330f565b50909695505050505050565b60006020828403121561335657600080fd5b5051919050565b80820180821115611eab57611eab613283565b60006001820161338257613382613283565b5060010190565b6001815b60018411156133c4578085048111156133a8576133a8613283565b60018416156133b657908102905b60019390931c92800261338d565b935093915050565b6000826133db57506001611eab565b816133e857506000611eab565b81600181146133fe576002811461340857613424565b6001915050611eab565b60ff84111561341957613419613283565b50506001821b611eab565b5060208310610133831016604e8410600b8410161715613447575081810a611eab565b6134546000198484613389565b806000190482111561346857613468613283565b029392505050565b6000612f5283836133cc565b60408152600061348f604083018561319e565b90508260208301529392505050565b600082516134b081846020870161317a565b919091019291505056fe360894a13ba1a3210667c828492db98dca3e2076cc3735a920a3ca505d382bbccd5ed15c6e187e77e9aee88184c21f4f2182ab5827cb3b7e07fbedcd63f033009b779b17422d0df92223018b32b4d1fa46e071723d6817e2486d003becc55f00a26469706673582212203e25febd97bf20a25b0ad2ddf986da019cf34d7f406de3006f4a4d418fbcc85b64736f6c634300081b0033",
  "linkReferences": {
    "contracts/libraries/StakingLib.sol": {
      "StakingLib": [
        {
          "length": 20,
          "start": 3231
        },
        {
          "length": 20,
          "start": 3801
        },
        {
          "length": 20,
          "start": 3971
        },
        {
          "length": 20,
          "start": 4167
        },
        {
          "length": 20,
          "start": 7996
        },
        {
          "length": 20,
          "start": 8390
        },
        {
          "length": 20,
          "start": 9978
        },
        {
          "length": 20,
          "start": 10129
        }
      ]
    }
  },
  "deployedLinkReferences": {
    "contracts/libraries/StakingLib.sol": {
      "StakingLib": [
        {
          "length": 20,
          "start": 2978
        },
        {
          "length": 20,
          "start": 3548
        },
        {
          "length": 20,
          "start": 3718
        },
        {
          "length": 20,
          "start": 3914
        },
        {
          "length": 20,
          "start": 7743
        },
        {
          "length": 20,
          "start": 8137
        },
        {
          "length": 20,
          "start": 9725
        },
        {
          "length": 20,
          "start": 9876
        }
      ]
    }
  }
}